:020000040800F2
:10000000285B0020F102000873120008370A00087C
:1000100071120008B9070008F7140008000000007A
:10002000000000000000000000000000390200088D
:10003000B5090008000000008D020008BD1300088B
:100040000B0300080B0300080B0300080B03000858
:100050000B0300080B0300080B0300080B03000848
:100060000B0300080B0300080B0300080B03000838
:100070000B0300080B0300080B0300080B03000828
:100080000B0300080B0300080B0300080B03000818
:100090000B0300080B0300080B0300080B03000808
:1000A0000B0300080B0300080B0300080B030008F8
:1000B0000B0300080B0300080B0300080B030008E8
:1000C0000B0300080B0300080B0300080B030008D8
:1000D0000B0300084D1400080B0300080B03000875
:1000E0000B0300080B0300080B0300080B030008B8
:1000F0000B0300080B0300080B0300080B030008A8
:100100000B0300080B0300080B0300080B03000897
:100110000B0300080B0300080B0300080B03000887
:100120000B0300080B0300080B0300080B03000877
:100130000B0300080B0300080B0300080B03000867
:100140000B0300080B0300080B0300080B03000857
:100150000B0300080B0300080B0300080B03000847
:100160000B0300080B0300080B0300080B03000837
:100170000B0300080B0300080B0300080B03000827
:100180000B0300080B03000800F002F800F044F82D
:100190000AA090E8000C82448344AAF10107DA45E2
:1001A00001D100F039F8AFF2090EBAE80F0013F0F0
:1001B000010F18BFFB1A43F001031847506A0000F3
:1001C000706A0000103A24BF78C878C1FAD8520784
:1001D00024BF30C830C144BF04680C6070470000C1
:1001E0000023002400250026103A28BF78C1FBD840
:1001F000520728BF30C148BF0B607047642900F028
:100200000381732900F01082002070471FB503F0AE
:10021000FDFA1FBD10B510BD00F09BFA1146FFF7A7
:10022000F5FF01F003FA00F0B9FA03B4FFF7F2FFAB
:1002300003BC01F061F900002A4B19680868B0E8B6
:10024000F04F80F30988BFF36F8F4FF0000080F309
:10025000118870470000000006480068006880F3BD
:10026000088862B661B6BFF34F8FBFF36F8F00DFB0
:1002700000BF00BF08ED00E0DFF80C00016841F4AA
:1002800070010160704700BF88ED00E0EFF3098066
:10029000BFF36F8F134B1A681EF0100F08BF20EDCD
:1002A000108A20E9F04F106008B44FF0500080F33E
:1002B0001188BFF34F8FBFF36F8F02F089FA4FF0B1
:1002C000000080F3118808BC19680868B0E8F04F96
:1002D0001EF0100F08BFB0EC108A80F30988BFF33E
:1002E0006F8F70473C000020EFF3058070470000DF
:1002F0000948804709480047FEE7FEE7FEE7FEE7BA
:10030000FEE7FEE7FEE7FEE7FEE7FEE704480549F5
:10031000054A064B70470000D11300088901000808
:1003200028550020285B002028570020285700204F
:10033000704700000FB4044910B503AA029800F0FA
:1003400077F910BC5DF814FB380000202DE9F0416E
:100350000E460446002020622046E168884730B3FC
:10036000252805D0D4E901219047206A401CF2E7F6
:10037000E168204600278847050018D0A5F1410014
:10038000192802D820354FF4006732462946204606
:100390002760FFF733FF40B1012804D0F61D26F097
:1003A00007060836D8E7361DD6E72846DAE7206A7A
:1003B000BDE8F08170B50C460546012A05D02878C5
:1003C000800600D5EA69002302E0012305E05B1CFA
:1003D000934202D2E05C0028F9D1A869E618C01A5D
:1003E000A861286A184428622846AFF3008004E018
:1003F000D5E9012114F8010B9047B442F8D32846FF
:10040000AFF3008070BD00002DE9F04106460024E6
:1004100010687529314616A510D0AFF3008000286A
:1004200002DA404213A507E031688A0701D512A518
:1004300002E0490704D511A5012401E0AFF30080D3
:1004400000210A2206F1240709E0B0FBF2FCB0FB10
:10045000F2F302FB1C00303078541846491C002887
:10046000F3D123462A463046BDE8F04100F059B8A2
:10047000000000002D0000002B0000002000000004
:10048000032A40F2308010F0030C00F0158011F8C0
:10049000013BBCF1020F624498BF11F801CB00F898
:1004A000013B38BF11F8013BA2F1040298BF00F8EC
:1004B00001CB38BF00F8013B11F0030300F0CA8004
:1004C000083AC0F0088051F8043B083A51F804CBD0
:1004D000A0E80810F5E7121D5CBF51F8043B40F896
:1004E000043BAFF30080D20724BF11F8013B11F8A1
:1004F00001CB48BF11F8012B24BF00F8013B00F8E5
:1005000001CB48BF00F8012B704702F0FF0343EA1C
:10051000032242EA024200F0D1B8704770477047A8
:1005200070472DE9F0470D4699469246044600F182
:1005300024080168880604D5E06921F010012160D3
:1005400000E00120A84201DD471B00E00027A1696F
:100550007A1902EB0900081AA0612078C00602D4BB
:100560002046AFF30080002608E0D4E901211AF804
:1005700006009047206A401C761C20624E45F4DB42
:100580002078C0060AD52046AFF3008006E0D4E903
:10059000012130209047206A401C2062381EA7F1BC
:1005A0000107F4DC07E0D4E9012118F805009047C1
:1005B000206A401C2062281EA5F10105F3DC2046BC
:1005C000AFF300802078000602D50220BDE8F08756
:1005D0000120FBE701694A1C02610878704700B5F9
:1005E0008FB0CDE901310021059105497944CDE96C
:1005F000031011466846FFF7A9FE0FB000BD0000CA
:10060000E5FFFFFF10B5436913B1AFF3008001E0D0
:10061000FFF7D0FE012010BD127800F124010A700E
:1006200000224A700122EDE711684FF0FF32E9E73E
:10063000074B70B50D467B44FFF7D1FF04462846B3
:1006400000F05CF810B14FF0FF3070BD204670BD77
:10065000870F000010B5203AC0F00B80B1E81850A9
:10066000203AA0E81850B1E81850A0E81850BFF49C
:10067000F5AF5FEA027C24BFB1E81850A0E818503B
:1006800044BF18C918C0BDE810405FEA827C24BF8F
:1006900051F8043B40F8043B08BF7047D20728BF1D
:1006A00031F8023B48BF11F8012B28BF20F8023B6C
:1006B00048BF00F8012B70474FF000020429C0F03A
:1006C000128010F0030C00F01F80CCF1040CBCF180
:1006D000020F18BF00F8012BA8BF20F8022BA1EBD6
:1006E0000C0100F011B85FEAC17C24BF00F8012BB7
:1006F00000F8012B48BF00F8012B7047007B00F089
:10070000800070474FF0000200B5134694469646AD
:10071000203922BFA0E80C50A0E80C50B1F1200114
:10072000BFF4F7AF090728BFA0E80C5048BF0CC0C2
:100730005DF804EB890028BF40F8042B08BF704720
:1007400048BF20F8022B11F0804F18BF00F8012B92
:100750007047754600F02CF8AE46050069465346D2
:1007600020F00700854618B020B5FFF7CFFDBDE8A3
:1007700020404FF000064FF000074FF000084FF008
:10078000000B21F00701AC46ACE8C009ACE8C00999
:10079000ACE8C009ACE8C0098D46704710B5044606
:1007A000AFF300802046BDE81040FFF73EBD0000DB
:1007B00000487047C4540020FEE710B5044600F01E
:1007C000FFF9462000F0CCF900F03CFA0028FBD1FC
:1007D000204600F0C5F900F035FA0028FBD100F002
:1007E0000FFABDE81040052000F0B4BE10B50A496C
:1007F0000C460878497801EB002080B2608002F056
:100800009EFF9FED061B53EC112B02F011FE02F030
:1008100067FF606010BD00002800002033333333D1
:100820003333F33F70B515480024016821F44021AB
:10083000016001680160124D04E0641CE4B2012013
:1008400000F0A4FED5F8240210B1642CF5D30DE01D
:10085000642C0BD2002404E0641CE4B2012000F0FC
:1008600095FED5F8240218B1642C04D3012070BD84
:10087000642CF1D3FAE7002070BD0000001802409C
:10088000000043421CB50121402000F0FDFC4FF464
:100890000070009001208DF8040000218DF80610F2
:1008A00002218DF805108DF807006946034800F015
:1008B00082F800F061F8FFF7B5FF1CBD0018024098
:1008C00070B50024104D04E0641CE4B2012000F077
:1008D0005DFED5F8240208B1642CF5D3002404E0B1
:1008E000641CE4B2012000F051FED5F8240208B9DE
:1008F000642CF5D3282000F049FED5F82402002806
:1009000000D0012070BD00000000434270B50020FF
:1009100004464006050EFFF7D3FF641C2843E4B2EB
:10092000082CF6D370BD2DE9FC410E46074600F0B9
:1009300023F8FFF777FF10B10120BDE8FC81002408
:100940006D46FFF7E3FF2855641CE4B2052CF8D38D
:100950009DF800009DF801109DF8033042189DF8A5
:1009600002100B441A449DF804309A4201D13070B1
:1009700039700020E1E700000C4810B5016821F44F
:1009800040210160016841F480210160084C002091
:10099000C4F8A402142004F5297400F0DBFD012042
:1009A0002060BDE810401E2000F0F0BD001802409D
:1009B000000043427047F0B5002201274FF0030CBE
:1009C0000B6807FA02F52B40AB422CD106685300A6
:1009D0000CFA03F4A64306600E79D0F800E09E40BE
:1009E00046EA0E0606600E79012E01D0022E12D1C3
:1009F0008668A64386604E79D0F808E09E4046EAB5
:100A00000E0686604668AE43466045688E7996401D
:100A1000B6B235434560C568A543C560CC799C40F6
:100A2000C3681C43C460521C102AC9D3F0BD418363
:100A3000704701837047FEE770B50D4C0025C4F880
:100A400098520C48016821F440410160016841F46A
:100A500080410160C4F89C52022004F5267400F025
:100A600095FD01202060022000F090FD256070BD02
:100A700000804042000402401CB50121022000F029
:100A800003FCC020012400908DF8044000208DF864
:100A9000060003208DF805008DF8074069460448DC
:100AA000FFF789FF0348C0F89842C0F89C421CBD7C
:100AB000000402400080404270B50D4C0026C4F88E
:100AC00098620C48016821F440410160016841F4DA
:100AD000804101600125C4F89C52022004F526746F
:100AE00000F054FD2560022000F050FD266070BD2E
:100AF00000804042000402402DE9F047814616483C
:100B00000024016821F44041016001680160134E36
:100B1000254627464FF00108C6F89872022000F0DB
:100B200035FDC6F898826006040ED6F81C0208B19E
:100B3000641CE4B2012000F029FD6D1CEDB2082D0B
:100B4000EAD3B9F1000F04D0FFF776FF2046BDE8E5
:100B5000F087FFF7B1FFF9E7000402400080404250
:100B60002DE9F04105461448016821F44041016037
:100B7000016841F480410160104E0027C6F8987268
:100B80003C464FF00108E809C6F89C026806050ECD
:100B9000022000F0FBFCC6F89882022000F0F6FC70
:100BA000C6F89872022000F0F1FC641CE4B2082C34
:100BB000E9D3BDE8F081000000040240008040421B
:100BC00070B50D48016821F440410160016841F4AD
:100BD00080410160094C0120C4F89C02C4F89802CD
:100BE000042004F5267400F0D1FC00256560042083
:100BF00000F0CCFC256070BD000402400080404243
:100C00000E4810B5016821F440410160016841F4CB
:100C1000804101600A4C0020C4F89802C4F89C028C
:100C2000042004F5267400F0B1FC0120206060600F
:100C3000BDE81040042000F0A9BC00000004024000
:100C40000080404270B512480024016821F4404100
:100C50000160016801600F4D0126C5F89C623046B5
:100C600000F094FCC5F89862012000F08FFC07E0CA
:100C7000641CE4B2FA2C03D9FFF7C2FF012070BD57
:100C8000D5F81C020028F3D1C5F8980270BD000009
:100C900000040240008040422DE9F04107461C4616
:100CA00016460D462A2000F081FABF1CB8B200F0AB
:100CB00073FAB61CB0B200F06FFA2B2000F076FA8F
:100CC0006D1CA8B200F068FA641CA0B200F064FACF
:100CD000BDE8F0412C2000F069BA10B514460B466F
:100CE0000246FFF7D9FF2046BDE8104000F054BA95
:100CF0002DE9F04780461F46581E83B21646501E07
:100D000082B20D464046DDF82090FFF7C5FF0AE0AD
:100D1000444604E0484600F03FFA641CA4B2B442E2
:100D2000F8D36D1CADB2BD42F2D3BDE8F087000030
:100D30002DE9FC4101215F2000F0A6FA01248DF885
:100D4000044000258DF806500326DFF878804FF424
:100D500080578DF8056000978DF80740694640463A
:100D6000FFF729FE39464046FFF763FE8DF8044041
:100D70008DF80650DFF8508048F232078DF8056094
:100D800000978DF8074069464046FFF714FE394644
:100D90004046FFF74EFE8DF804408DF806508DF862
:100DA00005608DF80740094C4FF4A067009769462D
:100DB0002046FFF700FE39462046FFF73AFEBDE821
:100DC000FC81000000180240000C024000100240AC
:100DD00010B5FFF7ADFF7C4C10212046FFF727FE32
:100DE000642000F0B7FB10212046FFF722FE6420AC
:100DF00000F0B0FBA1157548FFF71BFE642000F062
:100E0000A9FB112000F0D2F9782000F0A3FBB1205B
:100E100000F0CCF9052000F0DDF93C2000F0DAF913
:100E20003C2000F0D7F9B22000F0C0F9052000F016
:100E3000D1F93C2000F0CEF93C2000F0CBF9B320F2
:100E400000F0B4F9052000F0C5F93C2000F0C2F92B
:100E50003C2000F0BFF9052000F0BCF93C2000F078
:100E6000B9F93C2000F0B6F9B42000F09FF9032056
:100E700000F0B0F9C02000F099F9282000F0AAF99C
:100E8000082000F0A7F9042000F0A4F9C12000F028
:100E90008DF9C02000F09EF9C22000F087F90D20E6
:100EA00000F098F9002000F095F9C32000F07EF9D9
:100EB0008D2000F08FF92A2000F08CF9C42000F07A
:100EC00075F98D2000F086F9EE2000F083F9C52039
:100ED00000F06CF91A2000F07DF9362000F066F978
:100EE000C02000F077F9E02000F060F9042000F065
:100EF00071F9222000F06EF9072000F06BF90A204A
:100F000000F068F92E2000F065F9302000F062F959
:100F1000252000F05FF92A2000F05CF9282000F07D
:100F200059F9262000F056F92E2000F053F93A2006
:100F300000F050F9002000F04DF9012000F04AF9CE
:100F4000032000F047F9132000F044F9E12000F0FD
:100F50002DF9042000F03EF9162000F03BF90620A0
:100F600000F038F90D2000F035F92D2000F032F9AD
:100F7000262000F02FF9232000F02CF9272000F084
:100F800029F9272000F026F9252000F023F92D204B
:100F900000F020F93B2000F01DF9002000F01AF9C4
:100FA000012000F017F9042000F014F9132000F0DC
:100FB00011F93A2000F0FAF8052000F00BF9BDE82D
:100FC0001040292000F0F2B8000C0240001002404E
:100FD0002DE9FF4F83B00746DDF8449000904FEABB
:100FE000590A4FF000085FEA4A7000D0012000EB78
:100FF000DA0000FB09F001900498203A4844401EB2
:1010000083B207EB0A0002F0FF0B401E82B23846A3
:101010000499FFF741FE002550E0B9F10C0F28D0EC
:10102000B9F1100F2BD0B9F1180F2CD0B9F1200F56
:1010300047D1274901EB8B100024465D1298002808
:101040004FF0010000FA04F000EA060021D020B1C0
:101050003846069A0499FFF740FE7F1C0098BFB2FD
:10106000391A514524D10498009F401C80B2049045
:1010700022E018490BEB4B0001EB8000DCE716493E
:1010800001EB0B10D8E715490BEB4B0001EB0010FF
:10109000D2E708B1069800E0109800F07DF808F15A
:1010A0000100C0B2B0FBFAF280460AFB128058B1D0
:1010B000641CE4B2082CC1D36D1CADB2019885420A
:1010C000ABD307B0BDE8F08F4FF00008F4E70000A5
:1010D0004A540008163800088A3C00087A42000882
:1010E0002DE9FF4F83B00027DDE911A81D46814699
:1010F0004FEA58063C46BB462CE0281B401EC1B2B6
:101100000A2000F00FFB0599B1FBF0F00A21B0FBBB
:10111000F1F201FB120027B9691E8C4201DA58B1C5
:1011200001273030C2B2CDE900A804FB069080B29E
:10113000CDF808B0109B08E0CDE900A804FB0690AC
:10114000109B80B2CDF808B020220499FFF740FF31
:10115000641CE4B2AC42D0D307B0BDE8F08F2DE9F7
:10116000FE4F9946DDE90D6714468A460546DDF8CF
:1011700030800CE0CDF800804B4651462846CDE942
:101180000167FFF725FF05EB560085B2641C227846
:10119000002AEFD1BDE8FE8F10B50446000A00F02A
:1011A00019F8E0B2BDE8104000F014B870B5084D71
:1011B00006464FF4004421462846FFF738FC3046E7
:1011C00000F008F821462846BDE87040FFF731BC22
:1011D000000C02402DE9F041134E05460221304635
:1011E000FFF725FC0024B046104FB61431463846B0
:1011F000FFF71DFC28064FF02001404602D5FFF7FF
:1012000018FC01E0FFF713FC31463846FFF711FCEC
:101210006806641C050EE4B2082CE7D34046BDE81E
:10122000F0410221FFF705BC000C0240001802400B
:101230007CB50121202000F027F801208DF8040062
:1012400000228DF8062003218DF80510074D4FF47C
:10125000C0648DF80700009469462846FFF7ABFB91
:1012600021462846FFF7E5FB7CBD00000014024044
:10127000FEE77047024908430249086070470000D2
:101280000000FA050CED00E0044A0029116801D0C5
:10129000014300E081431160704700003038024094
:1012A00010B5FFF78DFC4720FFF75AFCFFF7CAFC8B
:1012B0000028FBD10120FFF71FFC064C2070002006
:1012C000FFF71AFC6070FFF79BFCBDE8104005209B
:1012D00000F040B9280000200CB5002227490092F8
:1012E0000192086840F4803008604FF4A043086819
:1012F00000F4003001900098401C0090019810B953
:1013000000989842F3D10868800334D501200190F9
:101310001A484030026842F0805202601848026861
:1013200042F44042026015480830026802600268D8
:1013300042F400420260026842F4A0520260031FBD
:10134000104A1A600A6842F080720A600A689201C4
:10135000FCD50D4940F205720A60016821F00301D5
:101360000160016841F0020101600168C1F381017F
:101370000229FAD10CBD01920CBD000000380240D8
:101380000070004008544007003C024010B50120A6
:10139000FFF713FA0720FFF710FABDE810402020EE
:1013A000FFF70BBA4FF0E0210428086903D020F0C2
:1013B00004000861704740F00400FAE710B501F03E
:1013C000DBFD012803D0BDE8104001F0C9BA10BD13
:1013D000124810B5016841F47001016010480168BD
:1013E00041F0010101600E4A0021083211600268DB
:1013F0000C4B1A400260031D0B4A1A60026822F46B
:101400008022026006480C300160FFF765FF034947
:101410004FF000608039086010BD000088ED00E0EA
:1014200000380240FFFFF6FE1030002410B5FFF731
:10143000ADFFB42000F08EF8FFF732FFFFF7D6F9CA
:101440000148406810BD00002800002070B5154C10
:1014500040F22551204600F02BF800280ED02046FF
:1014600000F045F8104AC1B21088030406D44404C1
:101470004FF0000306D50A2901D0138070BD40F457
:1014800000400DE00D2909D0C0F30D04074D401CAC
:1014900080B229551080C728EFD870BD40F4804035
:1014A000108070BD0010014034000020B00000200A
:1014B00070B501F01F0501260024C1F3421306FA9E
:1014C00005F2012B0FD0022B0FD0838A4FEA112196
:1014D0000088134206FA01F600EA060001D000B1C6
:1014E0000124204670BD8389F0E7038AEEE78088F7
:1014F000C0F308007047FEE770470000064C06493D
:10150000491C481EFFF70FFAFFF790FF6060642048
:1015100000F0ACFFF3E700000000002010B5044627
:101520000420FFF73FFF0A484FF47A71047014FB60
:1015300001F1012242804FF0E020026942F00202F4
:1015400002614161016941F00101016110BD0000CA
:101550003000002070B5044601F00EFD01280CD0CB
:10156000094D6888844203D3B4FBF0F000F07EFF9D
:101570006888B4FBF0F100FB11444FF47A706043CB
:10158000BDE8704000F002B83000002070B54FF0A8
:10159000E02500216C69094AAB6912785043AA69B9
:1015A0009A42FCD002D2A3EB020302E0A4EB0206B3
:1015B0003344194413468142F1D370BD30000020FA
:1015C00003490A885206FCD5C2B28A8070470000DF
:1015D000001001400EB5144F0C244FF6FF754FF468
:1015E00078464FF47A780096CDE9015428210223F9
:1015F0003A780846FFF774FD0096CDE901540223BE
:101600007A7837212820FFF76BFD0096CDE9015449
:10161000B888052382B246212820FFF761FD4046A5
:1016200000F024FFDFE7000000000020FEB54FF4CB
:101630004070FFF71FFEA820FFF770FFFFF7F8FDCF
:10164000FFF7C6FB4FF6FF750021A0238022084656
:101650000095FFF74DFBFFF70FFA0120FFF780FA27
:1016600000244FF4784718260BE00095CDE901647B
:1016700000213B4619A20846FFF771FDC820FFF77D
:1016800069FFFFF7FFF80028EFD10C260095CDE9A0
:1016900001643B4613A22821FFF761FD0095CDE9C7
:1016A00001643B4612A237210020FFF758FD009548
:1016B000CDE901643B4611A246210020FFF74FFD12
:1016C00013490120CDE900010202002311A11448B1
:1016D00001F026FC01F02AF80020FEBD4552524FD1
:1016E0005200000054656D70203D202020204300F2
:1016F00048756D69203D202020202500496C6C75BF
:101700006D3D202020202020206C757800000000F6
:101710000800002073746172745F7461736B000061
:10172000F12000080346012000E05843491EC9B2D9
:10173000FBD270472DE9F041184E0F460446F5687C
:101740003068001D00F008FD38B9306890F82C10A2
:1017500001208840316981433161601C07D137B174
:101760003168BDE8F0410E48091D00F02DBD30681C
:101770002C44AC424460316805D2B06BBDE8F04106
:10178000091D00F009BD706B091D00F005FDB06A70
:10179000844200D2B462BDE8F08100003C00002029
:1017A000880400202DE9F041054600F019FD2D4E7A
:1017B000B068401CB06030682B4F10B1706930B316
:1017C0002BE03560B068012827D1002404EB8400A9
:1017D00007EB800000F0D2FC641C202CF6D32348D9
:1017E00000F0CCFC2148143000F0C8FC1F48283021
:1017F00000F0C4FC1D483C3000F0C0FC1B485030D9
:1018000000F0BCFC194870631430B06305E0306828
:10181000E96AC06A884200D83560706A0121401CBC
:1018200070626864E86A326981401143316100EB9B
:10183000800007EB8000291D00F0C6FC00F00CFDC5
:10184000706900280CD03068E96AC06A884207D203
:1018500007494FF080500860BFF34F8FBFF36F8F81
:10186000BDE8F0813C000020B801002038040020D1
:1018700004ED00E010B500F0B3FC0E4C2068A0B9F8
:101880000D4800F07BFC0C48143000F077FC0A484F
:10189000E0601430206100221021052001F076F86C
:1018A000206010B105A100F0ADFDBDE8104000F0D2
:1018B000D3BC0000780000209C040020546D7251BD
:1018C0000000000070B5124E124D1CE000F078FFD1
:1018D000306820B1002401F07DFCA4B901E00124AE
:1018E000F9E700F07DFCF068C468201D00F034FCCE
:1018F000A868401EA8606868401E686000F0ACFCE4
:10190000204600F052F868680028DFD170BD000062
:10191000740400203C00002030B4026C0B46002A06
:101920000BD0C1681144C1604468A14201D3016871
:10193000C16030BC1846FEF7A3BD30BC70472DE92E
:10194000F041856B174604460026026C82B1C7B190
:10195000E068FEF795FDE168206C091AE1602268F5
:10196000914202D26168081AE060022F16D017E097
:101970002068A8B9606801F087FB06460020606017
:101980000EE0A068FEF77CFD216CA0680844A06012
:101990006168884204D32068A06001E005B16D1E33
:1019A0006D1CA5633046BDE8F08110B50446006BA0
:1019B00000F084FC2046BDE8104000F07FBC000031
:1019C00010484FF4A041420706D0C01D0D4920F039
:1019D0000700411AC1F5A0410B4A00230144C2E9A6
:1019E00000030839103A21F0070111604B600B60C9
:1019F0000B1AC0E9001393604FF000405360D060B1
:101A000070470000C4040020A8000020074E4FF0DB
:101A10008054074DFFF756FF30680128FAD92C6033
:101A2000BFF34F8FBFF36F8FF4E70000B8010020C2
:101A300004ED00E02DE9F047DDE909840E46174684
:101A4000824691009946089DA522206BFEF75DFD18
:101A50006FF00301206B01EB8701084420F00707BA
:101A6000780705D040F22B3219A11EA0FEF762FCC8
:101A700000202218315C82F83410315C11B1401C16
:101A80001028F6D3002684F84360202D00D31F25AC
:101A9000E562C4E91356201D00F07BFB04F1180039
:101AA00000F077FB2461C5F120006462A0616665E7
:101AB00084F858604A465146384600F003FB2060DF
:101AC000B8F1000F01D0C8F80040BDE8F087000071
:101AD0002E2E5C4672656552544F535C7461736B75
:101AE000732E63004572726F723A25732C25640D54
:101AF0000A00000030B5114900E011460A68824230
:101B0000FBD34B685C18844203D14068184448609A
:101B1000084643681C18944209D1084C103C2468BC
:101B2000A24209D052681A4442600A6812680260F0
:101B3000814200D0086030BD0460F9E7A8000020B1
:101B400070B5002441600B4D0061914206D8D11A56
:101B50008269914206D2011D286907E09A4203D2A8
:101B6000994201D3012403E0011DE86800F014FB51
:101B7000204670BD7800002010B5044600F030FB10
:101B8000A06B20B1002400F067FB204610BD0124AB
:101B9000F9E700002DE9F34100980F460026846C18
:101BA0002CB940F6CE1216A11AA0FEF7C3FBA06B0B
:101BB000E16B884205D340F6CF1211A115A0FEF7C4
:101BC000B9FBA06BE16B88420CD294F945503A46C0
:101BD00069462046FFF7B3FE0646681C05D06D1C1B
:101BE00084F845503046BDE8FC81606A0028F9D091
:101BF00004F1240001F0A2FA0028F3D00126F1E755
:101C00002E2E5C4672656552544F535C7175657536
:101C1000652E63004572726F723A25732C25640D30
:101C20000A000000F8B5054614480E46C068C068B2
:101C3000C468201D00F090FAE069012817D1A0695E
:101C40002B46411932462046FFF77AFF78B1002033
:101C50000346014600902A46204601F0A1FB30B918
:101C600007494FF4027201F11800FEF763FB616A45
:101C700001B02046BDE8F040084700007800002091
:101C80000433000870B586B02F4E53E00198002849
:101C900006DADDE90301029A90470198002849DB42
:101CA000039C606910B1201D00F056FA05A800F0F1
:101CB000A7F8054601980A283CD2DFE800F00505A0
:101CC000053B273805053B270298A16903460144D7
:101CD0002A462046FFF734FF00282BD0616A2046B1
:101CE0008847E069012825D1002000900298A16969
:101CF000002342181946204601F052FBD0B940F2A9
:101D0000213212A117A0FEF715FB13E00298A06183
:101D100028B94FF44E720DA112A0FEF70BFBA0697B
:101D20002B4641191A462046FFF70AFF02E02046DB
:101D300000F0C4FA00231A4601A9306800F062FEE0
:101D40000028A3D106B070BD780000202E2E5C467E
:101D500072656552544F535C74696D6572732E637E
:101D6000000000004572726F723A25732C25640DD5
:101D70000A000000F8B50D46064600F021FD684651
:101D800000F03EF80446009810B101F023FAF8BDC7
:101D90001148ADB101690968D9B10025311B2A4646
:101DA000006800F041FB01F015FA0028EFD10B4963
:101DB0004FF080500860BFF34F8FBFF36F8FF8BDB7
:101DC000A642EBD801F006FA21463046FFF72AFF7B
:101DD000F8BD0125E2E700007800002004ED00E0F6
:101DE0000648416B096829B1416BC968C9684968EF
:101DF000816270474FF0FF31FAE700003C0000209D
:101E000070B5054601F0C6F8064E0446B068844237
:101E100003D200F009F8012000E0002028602046ED
:101E2000B46070BD78000020F8B5184E26E0C06898
:101E3000C4680568201D00F08FF9616A2046884754
:101E4000E06901281AD1A0692844A84206D9246172
:101E50006060211DF06800F09FF90FE0002003464C
:101E6000014600902A46204601F09AFA30B9084906
:101E700040F2923201F11800FEF75CFAF068016856
:101E80000029D4D13169C6E90310F8BD78000020DB
:101E90000433000808484068401C05D040F20F1287
:101EA00006A111A0FEF746FA502080F31188BFF377
:101EB0004F8FBFF36F8FFEE78C0000202E2E5C4605
:101EC00072656552544F535C706F727461626C65D9
:101ED0005C525644535C41524D5F434D34465C70F6
:101EE0006F72742E630000004572726F723A257330
:101EF0002C25640D0A000000084CE068016839B127
:101F0000002139B10020FFF735FFFFF7BBFEF4E7F2
:101F10000121F6E7C0680068F5E7000078000020BE
:101F20002DE9F041044600F05BF994F9455004F1C5
:101F3000240610E0A06C20B100212046FFF72AFE05
:101F400004E0606A48B1304601F0F8F808B100F0EA
:101F500029FB6D1E6DB2002DECDC4FF0FF3684F8CE
:101F6000456000F079F900F03BF994F9445004F130
:101F7000100709E0206948B1384601F0DFF808B1E0
:101F800000F010FB6D1E6DB2002DF3DC84F8446090
:101F9000BDE8F04100F060B92DE9F04105460026AA
:101FA00000F00EFC324F386808B9FFF709FDF868F9
:101FB00005424FD1002D4DD0083568070BD005F0F4
:101FC0000700C0F108000544680704D0BF2229A11A
:101FD00032A0FEF7AFF9002D3CD07868854239D8A1
:101FE000234910310846046801E021460446606830
:101FF000A84202D220680028F7D13868B846844247
:1020000028D00E682068086060680836401B1028D9
:102010000ED96719780704D0EC2216A11FA0FEF78D
:1020200089F96068401B786038466560FFF762FD9B
:102030006168D8F804004246401AC8F80400D8F88D
:102040000830984200D29060D8F80C00014300207C
:10205000C4E9000101F0BEF8700705D04FF4967294
:1020600004A10EA0FEF766F93046BDE8F08100003D
:10207000980000202E2E5C4672656552544F535CCA
:10208000706F727461626C655C4D656D4D616E67F9
:102090005C686561705F342E630000004572726F8A
:1020A000723A25732C25640D0A0000000449086863
:1020B00018B10868026D521C02650868704700007C
:1020C0003C00002010B5031F4FF080741C601B1FE4
:1020D00021F001011960191F044B0B6014390A60CB
:1020E000091F6FF0020244380A6010BD951E0008F7
:1020F0001CB500F075F80F490220CDE9000100235E
:1021000080220DA10F4800F00BFF0A490320091D92
:10211000CDE90001002380220BA10E4800F000FF52
:1021200004480C38806800F0D7F9BDE81C4000F086
:1021300093B800000C0000206268313735305F74BE
:1021400061736B00FD1400086C63645F7461736BF2
:1021500000000000D5150008D0E9013201699A603D
:10216000D0E901235A604A68824201D182684A60FC
:10217000002202610868401E0860704700F10801F3
:102180004FF0FF32C0E90112C1600161002101601E
:10219000704700210161704730B50C68621C02D0A5
:1021A00000F1080202E0026904E01A4653681D6863
:1021B000A542FAD953684B6099608A605160086102
:1021C0000168491C016030BD42684A6093688B60B9
:1021D00093685960916008610168491C016070470B
:1021E000502080F31188BFF34F8FBFF36F8F0949E1
:1021F0004868401C486001280AD10748006810F070
:10220000FF0F05D040F2B91204A10FA0FEF792B85B
:10221000704700008C00002004ED00E02E2E5C468C
:1022200072656552544F535C706F727461626C6575
:102230005C525644535C41524D5F434D34465C7092
:102240006F72742E630000004572726F723A2573CC
:102250002C25640D0A00000010B5084C606828B9F0
:102260004FF4E07206A111A0FEF764F86068401E0A
:10227000606001D180F3118810BD00008C00002047
:102280002E2E5C4672656552544F535C706F7274AB
:1022900061626C655C525644535C41524D5F434DE4
:1022A00034465C706F72742E630000004572726F6A
:1022B000723A25732C25640D0A00000070B50028C1
:1022C0002AD0164DA0F108046068E968084205D1DB
:1022D0004FF4A07212A11CA0FEF72CF8206828B1C0
:1022E00040F241120EA118A0FEF724F86068E968D8
:1022F000084211D02268002A0ED18843606000F0A5
:102300005FFA60686968084468602046FFF7F2FB7E
:10231000BDE8704000F05EBF70BD00009800002076
:102320002E2E5C4672656552544F535C706F72740A
:1023300061626C655C4D656D4D616E675C68656181
:10234000705F342E630000004572726F723A25731D
:102350002C25640D0A00000006484FF47A710068CD
:10236000B0FBF1F14FF0E020491E4161072101610E
:10237000704700001400002010B5FDF7B5FF104CA9
:1023800010280CD300F1E02090F8F0032178884267
:1023900005D24FF440720BA115A0FDF7CBFF1848F2
:1023A0000068A16800F4E060884207D9BDE81040E9
:1023B0004FF4447203A10EA0FDF7BCBF10BD000096
:1023C0008C0000202E2E5C4672656552544F535C83
:1023D000706F727461626C655C525644535C41521A
:1023E0004D5F434D34465C706F72742E6300000085
:1023F0004572726F723A25732C25640D0A00000035
:102400000CED00E010B5074B002253F832401CB130
:10241000521C082AF9D310BD43F8321003EBC20155
:10242000486010BD7801002070B515460E46044680
:10243000FFF7D6FE94F944100020491C01D184F81E
:10244000440094F94510491C01D184F84500FFF778
:1024500003FFA06B28B92A46314604F1240000F09E
:10246000D1F82046BDE87040FFF75ABD10B5040012
:1024700012D00E49096B29B140F2CF420CA111A034
:10248000FDF758FF00F09CF900212046FFF752F9B4
:1024900000F0A0FE002807D10E494FF080500860E0
:1024A000BFF34F8FBFF36F8F10BD00003C000020C3
:1024B0002E2E5C4672656552544F535C7461736B8B
:1024C000732E63004572726F723A25732C25640D6A
:1024D0000A00000004ED00E070B50446FFF780FE3E
:1024E000234D04B92C68201DFFF736FE58B9E06A69
:1024F000204A00EB800152F8211021B901218140CE
:10250000286988432861A06A18B104F11800FFF710
:1025100023FE686A401C68622868844207D1211D36
:102520001548FFF751FE6868401C686007E0A8681E
:10253000401EA8602046FFF738FAFFF751FCFFF76E
:102540008BFE6869002812D0286884420FD1286B5E
:1025500028B140F2654209A10DA0FDF7EBFE10493C
:102560004FF080500860BFF34F8FBFF36F8F70BD87
:102570003C000020B8010020740400202E2E5C4690
:1025800072656552544F535C7461736B732E6300B4
:102590004572726F723A25732C25640D0A00000093
:1025A00004ED00E001490120C86170473C000020B3
:1025B00070B50D46040005D140F6063207A10CA007
:1025C000FDF7B8FE0E48016820461831FFF7E4FD1C
:1025D0002846BDE870400121FFF7ACB82E2E5C46BE
:1025E00072656552544F535C7461736B732E630054
:1025F0004572726F723A25732C25640D0A00000033
:102600003C00002070B514460E46050005D140F68A
:10261000313209A10DA0FDF78DFE10480168284652
:102620001831FFF7D1FD0CB14FF0FF36214630468F
:10263000BDE87040FFF77EB82E2E5C46726565528D
:10264000544F535C7461736B732E63004572726FE9
:10265000723A25732C25640D0A0000003C0000200E
:1026600070B5040039D01D4DE06A2968C96A8842F6
:1026700033D2A069002804DB2868C06AC0F12000BA
:10268000A061E06A164E00EB8000616906EB8000F5
:1026900081421FD1201DFFF75FFD012150B9E06A83
:1026A00000EB800256F8222022B92A6901FA00F0D4
:1026B00082432A612868C06AE0622A698140114326
:1026C000296100EB800006EB8000211DBDE8704011
:1026D000FFF77ABD2868C06AE06270BD3C00002048
:1026E000B801002010B5040005D140F6C13205A1A3
:1026F00009A0FDF71FFE0C48016A2160C0686060F8
:1027000010BD00002E2E5C4672656552544F535C1E
:102710007461736B732E63004572726F723A257326
:102720002C25640D0A0000003C0000201CB5174851
:102730000024CDE900402346822215A1164800F06E
:10274000EFFB012803D100F0F1FD01280AD0401C65
:102750001BD102B040F28472BDE810400FA114A05A
:10276000FDF7E8BD502080F31188BFF34F8FBFF312
:102770006F8F06484FF0FF312C3881620121416193
:10278000C460BDE81C4000F061B81CBD68000020BA
:1027900049444C45000000000D1A00082E2E5C46EE
:1027A00072656552544F535C7461736B732E630092
:1027B0004572726F723A25732C25640D0A00000071
:1027C0000248016B491C0163704700003C00002077
:1027D00070B5134D286B10B10120E86170BD002069
:1027E000E86128690F4EB0FA80F0C0F11F0000EBDD
:1027F000800456F8240028B940F6F6220AA10FA05A
:10280000FDF798FD06EB840000F108024168496875
:102810004160914201D149684160C868286070BD3B
:102820003C000020B80100202E2E5C4672656552E7
:10283000544F535C7461736B732E63004572726FF7
:10284000723A25732C25640D0A0000001CB5304C2B
:1028500020683049884205D140F259122EA139A092
:10286000FDF768FD20682B49491E884205D14FF4C9
:10287000AD7229A133A0FDF75DFD364C20780190A3
:10288000FF20207020788DF800009DF800009DF852
:10289000001000F0F000884205D040F273121EA133
:1028A00028A0FDF747FD9DF800002B4A00F05000DE
:1028B00010700720906007E09068401E90609DF8BF
:1028C000000040008DF800009DF800000006F3D4E1
:1028D000107A000200F4E0609060019820700C48CB
:1028E0002030016841F470010160016841F07041DD
:1028F0000160FFF731FD00205060FDF7BDFC174877
:10290000016841F040410160FDF7A6FC00201CBDBC
:1029100000ED00E071C20F412E2E5C4672656552DB
:10292000544F535C706F727461626C655C525644B4
:10293000535C41524D5F434D34465C706F72742E50
:10294000630000004572726F723A25732C25640D86
:102950000A00000000E400E08C00002034EF00E0FA
:1029600010B5502080F31188BFF34F8FBFF36F8FE6
:1029700000F016FB18B104494FF0805008600020A9
:1029800080F3118810BD000004ED00E02DE9F04156
:1029900017460E46050005D14FF4C47210A115A0CC
:1029A000FDF7C8FCBEB105FB06F05430FFF7F4FAA2
:1029B00004000ED004F154007EB12060C4E90F562B
:1029C0002046012100F0E0F884F8507000212046F4
:1029D000A164BDE8F0810020E7E72460EEE7000095
:1029E0002E2E5C4672656552544F535C7175657549
:1029F000652E63004572726F723A25732C25640D43
:102A00000A0000002DE9FF4F83B09B468A46040070
:102A10004FF0000605D140F2DC4251A155A0FDF770
:102A200089FCBAF1000F07D1206C28B140F2DD42D9
:102A30004BA150A0FDF77EFC00F09EFA38B9059836
:102A400028B14FF49C6246A14AA0FDF773FC4FF0F9
:102A500000094FF08057DFF82C81FFF7C1FBA56B11
:102A600045B351462046E668FEF756FFBBF1000F1E
:102A700013D0E660606A50B104F1240000F05EFB00
:102A800028B1C8F80070BFF34F8FBFF36F8FFFF707
:102A9000E3FB012007B0BDE8F08F6D1EA563206841
:102AA00010B9FFF703FB606020690028EFD004F144
:102AB0001000E3E7059808B11EB106E0FFF7CCFB74
:102AC00027E06846FFF70EFE0126FFF7C5FBFFF77C
:102AD00077FEFFF785FB94F94400401C01D184F890
:102AE000449094F94500401C01D184F84590FFF7CB
:102AF000B3FB05A9684600F0CFF9002820460AD0AC
:102B0000FFF70EFA00F066FB2046FFF735F80028C5
:102B1000A3D00020BEE7FFF72FF8D8B1206830B966
:102B2000FFF75EFB6068FFF79BFDFFF795FB04F185
:102B300024000599FFF73CFD2046FFF7F1F900F06E
:102B400049FB002889D1C8F80070BFF34F8FBFF34D
:102B50006F8F82E72046FFF7E3F900F03BFB7CE74D
:102B60002E2E5C4672656552544F535C71756575C7
:102B7000652E63004572726F723A25732C25640DC1
:102B80000A00000004ED00E070B50D46040005D118
:102B900040F21B121CA121A0FDF7CCFBFFF720FB8C
:102BA000D4E90F20216802FB001161600021A163BC
:102BB0002168A1600A46D4E90F01401E00FB0121F3
:102BC000E16021464FF0FF3001F8440F487004F1F6
:102BD00010004DB1FFF7D2FA04F12400FFF7CEFA4E
:102BE000FFF73AFB012070BD21690029F8D000F001
:102BF000A5FA0028F4D00D494FF080500860BFF3CB
:102C00004F8FBFF36F8FEBE72E2E5C4672656552D8
:102C1000544F535C71756575652E63004572726F14
:102C2000723A25732C25640D0A00000004ED00E0C3
:102C30002DE9FF4F83B099468B4604004FF0000604
:102C400005D140F2D92252A156A0FDF773FBBBF18A
:102C5000000F07D1206C28B140F2DA224CA151A01C
:102C6000FDF768FBB9F1020F08D1E06B012805D030
:102C700040F2DB2246A14BA0FDF75CFB00F07CF9A3
:102C800038B9059828B140F2DE2241A145A0FDF7F0
:102C900051FB4FF0000A4FF08057DFF81881FFF723
:102CA0009FFAA06BE16B884206D3B9F1020F03D003
:102CB000059800B316B325E04A4659462046FEF76C
:102CC0003EFEA16C21B149462046FEF763FF05E0B8
:102CD000616A19B104F1240000F030FA28B1C8F893
:102CE0000070BFF34F8FBFF36F8FFFF7B5FA01206E
:102CF00007B0BDE8F08FFFF7AFFA21E06846FFF7B5
:102D0000F1FC0126FFF7A8FAFFF75AFDFFF768FA72
:102D100094F94400401C01D184F844A094F9450082
:102D2000401C01D184F845A0FFF796FA05A9684632
:102D300000F0B2F830B12046FFF7F2F800F04AFA9E
:102D40000020D5E7FFF74CFAA06BE16B884201D178
:102D5000012500E00025FFF77FFA95B104F110008E
:102D60000599FFF725FC2046FFF7DAF800F032FA64
:102D7000002894D1C8F80070BFF34F8FBFF36F8F56
:102D80008DE72046FFF7CCF800F024FA87E7000033
:102D90002E2E5C4672656552544F535C7175657595
:102DA000652E63004572726F723A25732C25640D8F
:102DB0000A00000004ED00E02DE9F04798461546B2
:102DC0008946040005D140F29F322AA12EA0FDF7CA
:102DD000B1FAB9F1000F07D1206C28B14FF4687235
:102DE00024A129A0FDF7A6FAB8F1020F08D1E06BE3
:102DF000012805D040F2A1321EA123A0FDF79AFAC6
:102E0000FFF7BAFA5020EFF3118780F31188BFF370
:102E10004F8FBFF36F8FA06BE16B884207D3B8F180
:102E2000020F04D0002087F31188BDE8F08794F9E1
:102E30004560424649462046FEF781FD701C04D09D
:102E4000761C84F845600120EDE7A06C012620B1D6
:102E500041462046FEF79EFE06E0606A0028F2D05A
:102E600004F1240000F06AF90028ECD0002DEAD02B
:102E70002E60E8E72E2E5C4672656552544F535C17
:102E800071756575652E63004572726F723A2573B0
:102E90002C25640D0A00000070B50D46040005D114
:102EA00040F6CB3214A119A0FDF744FA2DB940F633
:102EB000CC3211A115A0FDF73DFAFFF791F9174AA1
:102EC000D06829684B1C0FD02368126A934202D045
:102ED000626882420AD96268801A884206D2081A59
:102EE00028602046FFF7FEFB002400E00124FFF7E6
:102EF000B3F9204670BD00002E2E5C467265655207
:102F0000544F535C7461736B732E63004572726F20
:102F1000723A25732C25640D0A0000003C00002045
:102F20002DE9FF5F8346DDE90E87994616468A46FE
:102F30009000FFF731F805001AD05C20FFF72CF85D
:102F4000040012D025630021CDE90241CDE90087BC
:102F50004B46324651465846FEF76CFD2046FEF77A
:102F600021FC012004B0BDE8F09F2846FFF7A6F938
:102F70004FF0FF30F6E700000548416919B1006BDA
:102F800018B10020704701207047022070470000F0
:102F90003C0000200148C068704700003C00002051
:102FA0002DE9F0412D4F0026386B40B1B869401C27
:102FB000B861F86900B101263046BDE8F081FD68CE
:102FC0006D1CFD6011D1786B006828B140F6D912F4
:102FD00023A128A0FDF7AEF9786BB96B7963B863CC
:102FE000386A401C3862FEF7FBFEB86ADFF894804E
:102FF000854209D3786B006880B1786BC068C4687B
:10300000606885420DD2B8623868C06A00EB800102
:1030100058F821000128CCD90126CAE74FF0FF302B
:10302000F1E7201DFFF798F8A06A18B104F1180025
:10303000FFF792F8E06A01213A6981401143396152
:1030400000EB800108EB8100211DFFF7BDF8E06A6D
:103050003968C96A8842CDD30126CBE73C000020FD
:103060002E2E5C4672656552544F535C7461736BCF
:10307000732E63004572726F723A25732C25640DAE
:103080000A000000B801002070B504004FF00006EF
:103090003CD01F4D2868844205D040F6C7621DA170
:1030A00021A0FDF747F9206D28B940F6C96219A1A2
:1030B0001DA0FDF73FF9206D401E2065E26CE16A1E
:1030C000914223D010BB201DFFF746F81A49012278
:1030D00050B9E06A00EB800351F8233023B92B6923
:1030E00002FA00F083432B61E06CE062C0F1200043
:1030F000A061E06A2B6982401A432A6100EB8000DC
:1031000001EB8000211DFFF75FF80126304670BDFE
:103110003C0000202E2E5C4672656552544F535C75
:103120007461736B732E63004572726F723A25730C
:103130002C25640D0A000000B80100202DE9F041A3
:10314000C068C4682CB940F6613216A11AA0FDF718
:10315000F1F804F118000746FEF7FEFF1A4D286B40
:10316000012660B139461948FFF72EF8E06A296850
:10317000C96A884213D90120EE61BDE8F081201DA3
:10318000FEF7EAFFE06A2A6906FA00F111432961B5
:103190000F4900EB800001EB8000211DE4E70020D7
:1031A000EBE700002E2E5C4672656552544F535C6F
:1031B0007461736B732E63004572726F723A25737C
:1031C0002C25640D0A0000003C0000206004002053
:1031D000B80100202DE9F0472B4D00242746286B2D
:1031E00028B94FF4FD6229A12DA0FDF7A3F8FEF741
:1031F000F7FF286B401E2863286BE8BBA8682C49A2
:103200000126C8B3A1F52A798846D8F80010E9B19B
:10321000D8F80C00C46804F11800FEF79DFF201DCB
:10322000FEF79AFFE06A2A6906FA00F11143296164
:1032300000EB800109EB8100211DFEF7C5FFE06A6C
:103240002968C96A8842E0D3EE61DEE70CB1FEF777
:10325000C7FDAC693CB1FFF7A3FE00B1EE61641E8F
:10326000F9D10020A861E86930B112490127380777
:103270000860BFF34F8F00E001E0BFF36F8FFEF7F0
:10328000EBFF3846BDE8F0873C0000202E2E5C4660
:1032900072656552544F535C7461736B732E630097
:1032A0004572726F723A25732C25640D0A00000076
:1032B0006004002004ED00E02DE9F0470746994640
:1032C00016460D462C20DDF820A0FEF765FE040012
:1032D00014D0B8464F46D1462DB94FF4C67209A155
:1032E0000EA0FDF727F8FEF7C5FA04F11801C4F89F
:1032F000008081E8E002201DFEF74BFF2046BDE87C
:10330000F08700002E2E5C4672656552544F535C68
:1033100074696D6572732E63000000004572726FF0
:10332000723A25732C25640D0A0000001CB5002498
:10333000FEF7A0FA0C48006868B10B491F20091D70
:10334000CDE9000100234FF4827208A10948FFF77C
:10335000E7FD040005D140F2331207A10CA0FCF7F1
:10336000E9FF20461CBD000078000020546D72204B
:1033700053766300F91E00082E2E5C467265655276
:10338000544F535C74696D6572732E6300000000C6
:103390004572726F723A25732C25640D0A00000085
:1033A0002DE9FF47DDF830A0994690460D4606000E
:1033B0004FF0000705D14FF4D37212A117A0FCF70C
:1033C000B9FF1A4C206880B1CDE900580296062D4D
:1033D00011DAFFF7D1FD02284FF0000309D00022D7
:1033E00069462068FFF724FC074604B03846BDE86C
:1033F000F0875246F4E700234A466946FFF7DCFCB3
:10340000F2E700002E2E5C4672656552544F535C05
:1034100074696D6572732E63000000004572726FEF
:10342000723A25732C25640D0A00000078000020F4
:103430002DE9C04130B4DFF8A0C23CEA111418BF36
:103440003CEA131400F0EC8081EA03051CEA111435
:1034500044EAD57418BF1CEA131500F0C780A4EB2A
:1034600005044FF0004545EAC12145EAC32341EA7E
:10347000505143EA525304F17F74994204F50034E9
:103480004FEAC0204FEAC22208BF904200F09C8061
:103490004FEA13650FF24016765D4FEA134506FBBF
:1034A00005F7C7F1807706FB07F74FEAD737A7FB89
:1034B00003687642C8F58038A7FB06CE38BFA8F16E
:1034C000010807FB08E64FF0000EA6FB028CE6FBA6
:1034D00003CEDCF1000CCEF1004E38BFAEF1010E90
:1034E000A6FB0C584FF000074FF00005E6FB0E87D7
:1034F000A1FB08C6A0FB07CE16EB0E0645F10005A2
:10350000E1FB076515F1E04E7EBFA4F580345FEA6C
:1035100046066D4116F1800745F100054FEA172771
:103520004FEA066647EA0567A6F1DE46B6F1805F18
:103530004FEA15251FD9384624F0010C05EBC4715C
:10354000BCF1FE6F01EB0C1102D8F0BCBDE80081AC
:1035500024425CBF01F5801E9EEAC47F02D4F0BC09
:10356000BDE80081244238D4F0BCA1F1C041BDE8DF
:10357000004100F045B94FEAD22242EA43524FEAF5
:10358000D323A7FB02864FEAD02040EA415007FB35
:1035900003661EEA0E0F4FEAD12105FB026658BFF3
:1035A000A6EB0056B6EB00564FEA520E4EEAC37E2B
:1035B00018EB0E0E56EB530EBDD518EB02085E410C
:1035C0007F1C55F10005B6E74FF480154FF000075A
:1035D0004FF000064FF00008ADE7F0BC4FF00000E0
:1035E00001F1C04101F00041BDE8008111EA0C1F6A
:1035F0000CEA131500D00CE013EA0C1F00F0258034
:103600004FF00000F0BC81EA030101F00041BDE889
:103610000081F0BCBDE8004181EA030100F0F0B890
:10362000F0BCBDE8004170B500F09CF8097EFC3E9E
:1036300000F007B881EA03014FF0000001F00041FB
:10364000704781EA030100F0DBB8F0BCBDE800413F
:103650004FF0000021497047FFFDFBF9F7F5F4F248
:10366000F0EEEDEBE9E8E6E4E3E1E0DEDDDBDAD81D
:10367000D7D5D4D3D1D0CFCDCCCBCAC8C7C6C5C47B
:10368000C2C1C0BFBEBDBCBBBAB9B8B7B6B5B4B392
:10369000B2B1B0AFAEADACABAAA9A8A8A7A6A5A47D
:1036A000A3A3A2A1A09F9F9E9D9C9C9B9A99999841
:1036B0009797969595949393929191908F8F8E8EE4
:1036C0008D8C8C8B8B8A8989888887878685858471
:1036D00084838382828181800000FF070000F87F5D
:1036E0004FEA41034FEA5353A3F58063D3F11E031E
:1036F000C8BFD3F1210C0CDD4FF0004242EAC122D9
:1037000042EA505232FA03FC8CEAE17CACEBE17005
:103710007047102BC4BF0020704703F5787CBCF1C4
:10372000FF3F04D06FF0004282EA2100704770B57D
:1037300000F018F84992248000207047F2E7B0FAB0
:1037400080F310FA03F10AD0C3F11D0303F580637F
:103750004FEA41504FEA035202EBD12170474FF03C
:10376000000070470EF1020E2EF0030E5EF8046B9F
:10377000364205D4012A43EB030515F5001F12D884
:10378000012841EB010C1CF5001F0CD80ED14FEAAB
:10379000D17C15F5001F0CEB4C0C0CF1020C08BF92
:1037A0004CEBD37C04E04FF0080C01E04FEAD37CF3
:1037B0000CEB4C0526FA05F606F00706B6F1040CEC
:1037C00006D20EEB860CBDE870404CF0010C604751
:1037D000DFE80CF0090B02024FF000414FF000004F
:1037E000A1F5002170BD19461046012851EB0104D6
:1037F00018BFD4F5001484BF002001F0004170BD53
:103800000808A0F500114FEA310170474FF04070F1
:10381000E1EE100A70470000000000000000000008
:103820000000000004040404040000040000141458
:103830000A00000000000000000000000A0A1F0A41
:103840000A1F0A0A000000040E1505060C14150EC6
:103850000400000012150D152E2C2A120000000085
:10386000040A0A361515291600000202010000009C
:103870000000000000001008080404040404080804
:1038800010000204040808080808040402000000EC
:103890000004150E0E150400000000000008083E8C
:1038A0000808000000000000000000000000020204
:1038B000010000000000003F0000000000000000C8
:1038C00000000000000000020000002010100808A6
:1038D00004040202010000000E1111111111110E59
:1038E00000000000040604040404040E00000000AC
:1038F0000E1111080402011F000000000E11100C2F
:103900001010110E00000000080C0C0A091F081C02
:10391000000000001F01010F1110110E0000000037
:103920000C12010D1311110E000000001E100808EA
:1039300004040404000000000E11110E1111110EF8
:10394000000000000E1111191610090600000000F9
:10395000000004000000000400000000000000045B
:103960000000000404000000100804020204081013
:103970000000000000003F003F00000000000000C9
:103980000204081010080402000000000E111108C3
:1039900004040004000000001C22292D2D1D221CFF
:1039A0000000000004040C0A0A1E1233000000008C
:1039B0000F12120E1212120F000000001E11010150
:1039C0000101110E000000000F1212121212120F4C
:1039D000000000001F120A0E0A02121F0000000061
:1039E0001F120A0E0A020207000000001C12010149
:1039F0003911120C000000003312121E1212123381
:103A0000000000001F0404040404041F0000000060
:103A10003E080808080808080907000037120A06C7
:103A20000A12123700000000070202020202223FBF
:103A3000000000003B1B1B1B151515350000000086
:103A40003B1216161A1A1217000000000E1111115F
:103A50001111110E000000000F12120E02020207D7
:103A6000000000000E1111111117190E18000000AE
:103A70000F12120E0A121237000000001E1101066A
:103A80000810110F000000001F1504040404040EA8
:103A900000000000331212121212120C000000007B
:103AA0003312120A0A0C0404000000001515151543
:103AB0000E0A0A0A000000001B0A0A04040A0A1B74
:103AC000000000001B0A0A0A0404040E00000000A3
:103AD0001F0908040402121F00001C04040404044B
:103AE000040404041C000002020404040808081072
:103AF00010000E0808080808080808080E00040A44
:103B000000000000000000000000000000000000B5
:103B100000000000003F0204000000000000000060
:103B2000000000000000000C121C123C000000030A
:103B30000202020E1212120E000000000000001C11
:103B40001202120C000000181010101C1212123C6D
:103B5000000000000000000C121E021C00000018F3
:103B60002404041E0404041E000000000000003CA5
:103B7000120C021C221C00030202020E1212123747
:103B800000000004040000060404040E0000000805
:103B90000800000C08080808080700030202021ABF
:103BA0000A060A1300000007040404040404041FA6
:103BB000000000000000000F1515151500000000A2
:103BC0000000000F12121237000000000000000C6D
:103BD0001212120C000000000000000F1212120E50
:103BE000020700000000001C1212121C1038000016
:103BF0000000001B06020207000000000000001E7B
:103C0000020C101E000000000004041E0404041C2A
:103C1000000000000000001B1212123C0000000017
:103C20000000001B0A0A0404000000000000001548
:103C3000150E0A0A000000000000001B0A040A1BFF
:103C4000000000000000003312120C080403000002
:103C50000000001E0804041E000018080808080CD4
:103C600008080808180008080808080808080808CC
:103C700008080604040404080404040406001609E1
:103C80000000000000000000000000000000000034
:103C9000000000000000000000000000000808080C
:103CA0000808080800001818000000486C241200DA
:103CB0000000000000000000000000000024242498
:103CC0007F1212127F12121200000000081C2A2A12
:103CD0000A0C1828282A2A1C08080000002225158A
:103CE00015152A585454542200000000000C1212DA
:103CF000120A76252911916E0000000606040300C1
:103D0000000000000000000000000040201010082B
:103D100008080808081010204000000204080810D5
:103D2000101010101008080402000000000008081D
:103D30006B1C1C6B08080000000000000000080855
:103D400008087F08080808000000000000000000C4
:103D50000000000000000606040300000000000050
:103D60000000FE0000000000000000000000000055
:103D70000000000000000606000000008040402017
:103D80002010100808040402020000000018244259
:103D900042424242424224180000000000080E083D
:103DA000080808080808083E00000000003C4242DD
:103DB000422020100804427E00000000003C4242E5
:103DC000201820404042221C000000000020302823
:103DD000242422227E20207800000000007E02029F
:103DE000021A26404042221C000000000038240233
:103DF000021A26424242241800000000007E2222BD
:103E0000101008080808080800000000003C4242A2
:103E1000422418244242423C000000000018244280
:103E2000424264584040241C000000000000000092
:103E30001818000000001818000000000000000022
:103E400000080000000000080804000000402010E6
:103E500008040204081020400000000000000000D8
:103E60007F0000007F000000000000000002040846
:103E7000102040201008040200000000003C4242D4
:103E8000464020101000181800000000001C225AA4
:103E9000555555552D42221C0000000000080818F9
:103EA0001414243C224242E700000000001F22229A
:103EB000221E22424242221F00000000007C424299
:103EC000010101010142221C00000000001F2242EA
:103ED000424242424242221F00000000003F421282
:103EE000121E12120242423F00000000003F421226
:103EF000121E12120202020700000000003C2222E1
:103F0000010101712122221C0000000000E7424251
:103F100042427E42424242E700000000003E080862
:103F2000080808080808083E00000000007C10107F
:103F30001010101010101010110F00000077221236
:103F40000A0E0A1212222277000000000007020265
:103F5000020202020202427F0000000000773636B1
:103F600036362A2A2A2A2A6B0000000000E3464639
:103F70004A4A52525262624700000000001C22412D
:103F8000414141414141221C00000000003F4242AA
:103F900042423E020202020700000000001C2241D1
:103FA000414141414D53321C60000000003F4242FC
:103FB000423E1212222242C700000000007C424210
:103FC000020418204042423E00000000007F4908E1
:103FD000080808080808081C0000000000E7424222
:103FE000424242424242423C0000000000E742425C
:103FF000222424141418080800000000006B49490A
:1040000049495555362222220000000000E742248B
:1040100024181818242442E7000000000077222208
:10402000141408080808081C00000000007E212065
:10403000101008040442423F0000007808080808F5
:1040400008080808080808087800000002020404AC
:1040500008080810102020204040001E10101010EA
:1040600010101010101010101E0000384400000036
:104070000000000000000000000000000000000040
:10408000000000000000000000FF00060800000023
:104090000000000000000000000000000000000020
:1040A000003C4278444242FC00000000000302024F
:1040B000021A26424242261A0000000000000000B8
:1040C0000038440202024438000000000060404012
:1040D00040784442424264D80000000000000000E2
:1040E000003C427E0202423C0000000000F08808D2
:1040F000087E08080808083E0000000000000000D4
:10410000007C22221C023C42423C000000030202CE
:10411000023A4642424242E700000000000C0C0016
:10412000000E08080808083E0000000000303000BB
:104130000038202020202020221E00000003020240
:104140000272120A1612227700000000000E080800
:10415000080808080808083E0000000000000000E9
:10416000007F9292929292B700000000000000003F
:10417000003B4642424242E70000000000000000CF
:10418000003C42424242423C00000000000000006D
:10419000001B26424242221E0207000000000000CF
:1041A000007844424242447840E0000000000000B1
:1041B00000774C040404041F00000000000000000D
:1041C000007C42023C40423E00000000000000082B
:1041D000083E080808080830000000000000000041
:1041E00000634242424262DC000000000000000026
:1041F00000E742242414080800000000000000002A
:1042000000EB494955552222000000000000000043
:10421000007624181818246E00000000000000002A
:1042200000E74224241418080807000000000000DA
:10423000007E22100808447E000000C020202020BC
:104240002010202020202020C0001010101010105E
:104250001010101010101010101000060808080898
:10426000081008080808080806000C32C200000000
:10427000000000000000000000000000000000003E
:10428000000000000000000000000000000000002E
:10429000000000000000000000000000000000001E
:1042A000000000000000000000000000000000000E
:1042B000000060006000600060006000600060005E
:1042C00040002000200020000000000000006000EE
:1042D00060006000000000000000000000006006B8
:1042E00060063003980188004400000000000000D0
:1042F00000000000000000000000000000000000BE
:1043000000000000000000000000000000000000AD
:1043100000001002100210021002FE07FE07080241
:104320000801080108010801FE07FE070401040155
:104330000401040100000000000000000000000073
:1043400040004000F00158034C03CC034C005800DF
:104350007000E000C001C00140034C035C034C034B
:104360004801F00040004000000000000000000094
:1043700000000E010A0191009100910051005100CE
:104380003A00AE03A0025004500448044804480414
:104390008402840300000000000000000000000010
:1043A000000038006C006C006C006C006C002C008D
:1043B00098071C011A01330133016301E300C308AC
:1043C000C6093C07000000000000000000000C00CF
:1043D0001C00100010000800040000000000000095
:1043E00000000000000000000000000000000000CD
:1043F00000000000000000000000000000000004B9
:1044000000020001800080004000400020002000E9
:1044100020002000200020002000400040008000FC
:104420008000000100020004000000000000020003
:104430000400080010001000200020004000400090
:1044400040004000400040004000200020001000DC
:10445000100008000400020000000000000000003E
:104460000000000000004000C0004000460C4E0F5D
:10447000D001F0015E0F460C4000400040000000FB
:10448000000000000000000000000000000000002C
:10449000000000000000000040004000400040001C
:1044A0004000FE0F4000400040004000400000007F
:1044B00000000000000000000000000000000000FC
:1044C00000000000000000000000000000000000EC
:1044D00000000000000000000000000000000C00D0
:1044E0001C00100010000800040000000000000084
:1044F00000000000000000000000000000000000BC
:104500000000FE07000000000000000000000000A6
:10451000000000000000000000000000000000009B
:10452000000000000000000000000000000000008B
:1045300000000000000000000000000000001C005F
:104540001C001C000000000000000000000000042F
:10455000000600020003000100018000800040000E
:10456000400060002000200010001000080008003B
:104570000C00040006000200000000000000000023
:1045800000000000F00098010C030C03060606066C
:104590000606060606060606060606060C030C03B5
:1045A0009801F00000000000000000000000000082
:1045B0000000000040007C006000600060006000BF
:1045C00060006000600060006000600060006000EB
:1045D0006000FC030000000000000000000000007C
:1045E00000000000F8008401020306030603000334
:1045F00000018001C00060002000100008020402D9
:104600000602FE03000000000000000000000000A1
:10461000000000007800C60086018601800180014C
:10462000C0007000800100010003000306030603C0
:104630008601F800000000000000000000000000FB
:104640000000000080018001C001A001A0019001D4
:104650008801880184018201FE0F800180018001B0
:104660008001E007000000000000000000000000E2
:1046700000000000FC030400040004000400040027
:10468000F4008C0104030003000306030603820107
:104690008401F8000000000000000000000000009D
:1046A00000000000E00118030C030C0004000600E9
:1046B000E60116030E0606060606060604060C02AA
:1046C0001803F000000000000000000000000000DF
:1046D00000000000F8070C060402040100010001BC
:1046E00080008000400040004000600060006000EA
:1046F00060006000000000000000000000000000FA
:1047000000000000F8010C030606060606060C026F
:104710001C03F000C8010C03060606060606060682
:104720000C03F00100000000000000000000000089
:1047300000000000F0000C010C030602060606064D
:10474000060606078C0678060006000300030C0127
:104750008C01780000000000000000000000000054
:104760000000000000000000000000000000E00069
:10477000E000E00000000000000000000000E00099
:10478000E000E00000000000000000000000000069
:1047900000000000000000000000000000006000B9
:1047A00060000000000000000000000000000000A9
:1047B00060006000400020002000000000000000B9
:1047C00000000004000200018000400020001000F2
:1047D00008000400080010002000400080000001D4
:1047E00000020004000000000000000000000000C3
:1047F0000000000000000000000000000000FE07B4
:10480000000000000000FE070000000000000000A3
:104810000000000000000000000000000000000098
:10482000000004000800100020004000800000018B
:10483000000200040002000180004000200010007F
:10484000080004000000000000000000000000005C
:1048500000000000E0031806040C040C0C0C0C0C07
:104860000007800140004000400000000000E00020
:10487000E000E00000000000000000000000000078
:104880000000E00018030C02CC0564056605A605CF
:10489000B604B604B604B604B602E4010C040C0275
:1048A0001803F000000000000000000000000000FD
:1048B00000000000600060005000D00090009000F8
:1048C000880088010801F8010403040304020202BD
:1048D00002060F0F000000000000000000000000B2
:1048E00000000000FE008C030C030C030C030C03FF
:1048F0008C01FC000C030C020C060C060C060C06CA
:104900000C03FE0100000000000000000000000099
:1049100000000000E00318030C060C040404060069
:104920000600060006000600060006040C040C0241
:104930001803F0000000000000000000000000006C
:10494000000000007F008C010C030C030C060C0619
:104950000C060C060C060C060C060C060C030C03CD
:104960008C017F000000000000000000000000003B
:1049700000000000FF03060306040604060086008C
:104980008600FE00860086008600060006040604F7
:104990000602FF030000000000000000000000000D
:1049A00000000000FF03060306040604060086005C
:1049B0008600FE00860086008600060006000600CF
:1049C00006001F00000000000000000000000000C2
:1049D00000000000F00018010C020C0204020600A6
:1049E000060006000600C60F060306030C030C03B0
:1049F0001803F000000000000000000000000000AC
:104A0000000000000F0F060606060606060606064C
:104A10000606FE070606060606060606060606063D
:104A200006060F0F0000000000000000000000005C
:104A300000000000FC036000600060006000600097
:104A40006000600060006000600060006000600066
:104A50006000FC03000000000000000000000000F7
:104A600000000000F807C000C000C000C000C00087
:104A7000C000C000C000C000C000C000C000C00036
:104A8000C000C000C60066003C000000000000003E
:104A900000000000CF038601C60046002600160075
:104AA00036002E006E004600C60086008601060114
:104AB00006038F0700000000000000000000000057
:104AC000000000001F0006000600060006000600A9
:104AD000060006000600060006000600060406049E
:104AE0000602FF03000000000000000000000000BC
:104AF000000000000707860386038E038E034E0323
:104B00004E034A035A035A033A0332033203320371
:104B100012038707000000000000000000000000F2
:104B2000000000008E0F0C021C021C023402340232
:104B3000640264024402C402840284038403040302
:104B400004031F020000000000000000000000003D
:104B500000000000F00098010C030C020606060697
:104B60000606060606060606060606060C020C03E0
:104B70009801F000000000000000000000000000AC
:104B800000000000FF0006030606060606060606ED
:104B900006068603FE000600060006000600060064
:104BA00006001F00000000000000000000000000E0
:104BB00000000000F00098010C030C020606060637
:104BC0000606060606060606060676064C02CC0310
:104BD0009801F000800700030000000000000000C2
:104BE00000000000FF01060306060606060606068C
:104BF0000603FE004600C600860086010603060383
:104C000006060F0E0000000000000000000000007B
:104C100000000000F8020C030602060206000E0067
:104C20003C00F800E00380030007020602060606C7
:104C30000C03F00100000000000000000000000074
:104C400000000000FE076204610861086000600067
:104C50006000600060006000600060006000600054
:104C60006000F801000000000000000000000000EB
:104C7000000000001E070C020C020C020C020C02C9
:104C80000C020C020C020C020C020C020C020C02B4
:104C90001801F0000000000000000000000000000B
:104CA000000000000F070602040104010C010C01C2
:104CB0008800880098009800500050007000300074
:104CC00020002000000000000000000000000000A4
:104CD00000000000F70E6204420446044604640229
:104CE0006402E402E4029C029C019801980188019C
:104CF00088008800000000000000000000000000A4
:104D0000000000009E070C01080118019000B0008F
:104D10006000200060006000D00090008801080161
:104D200004038E07000000000000000000000000E7
:104D3000000000000F0F060404020C020801180115
:104D4000B800B000700060006000600060006000AB
:104D50006000F801000000000000000000000000FA
:104D600000000000FC070C02060302018001800025
:104D700040004000200020001000180008040C042F
:104D80000402FE0300000000000000000000E00339
:104D90002000200020002000200020002000200013
:104DA0002000200020002000200020002000200003
:104DB000200020002000E0030000000000000000B0
:104DC000000004000400080008001000100010009B
:104DD0002000200040004000C00080008000000152
:104DE00000010002000200020004000000007C003C
:104DF00040004000400040004000400040004000B3
:104E000040004000400040004000400040004000A2
:104E10004000400040007C00000000006000900066
:104E20000801000000000000000000000000000079
:104E30000000000000000000000000000000000072
:104E40000000000000000000000000000000000062
:104E50000000000000000000000000000000000052
:104E60000000000000000000000000000000000042
:104E70000000000000000000FF0F0000000018000C
:104E800060000000000000000000000000000000C2
:104E90000000000000000000000000000000000012
:104EA0000000000000000000000000000000000002
:104EB0000000000000000000000000000000F00101
:104EC0000C030C030003E0031C030E03060306039C
:104ED0008E0B7C0E000000000000000000000000AF
:104EE000000008000E000C000C000C000C00CC01AF
:104EF0003C031C060C060C060C060C060C060C02E9
:104F00001C03E4010000000000000000000000009D
:104F10000000000000000000000000000000F000A1
:104F20008C018C01860106000600060006020C02B8
:104F30000C01F00000000000000000000000000074
:104F400000000002C0030003000300030003780315
:104F50008C030C030603060306030603060304037F
:104F60008C07780100000000000000000000000035
:104F70000000000000000000000000000000E00150
:104F8000180308020C060C06FC070C000C001804A1
:104F90001802E00100000000000000000000000016
:104FA00000000000C0036006300630003000FE0143
:104FB0003000300030003000300030003000300071
:104FC0003000FC01000000000000000000000000B4
:104FD0000000000000000000000000000000F007DA
:104FE000D8068C018C018C019801F8000C00FC00A3
:104FF000CC03060306038E03F80000000000000047
:10500000000008000E000C000C000C000C00EC016D
:105010001C030C030C030C030C030C030C030C0308
:105020000C039E07000000000000000000000000CC
:1050300000000000600060000000000040007C00F4
:105040006000600060006000600060006000600060
:105050006000FC03000000000000000000000000F1
:1050600000000000C001C001000000000001F001CC
:105070008001800180018001800180018001800128
:10508000800180018001CC007C0000000000000055
:10509000000008000E000C000C000C000C008C033B
:1050A0008C008C004C006C005C008C008C010C01AE
:1050B0000C039E070000000000000000000000003C
:1050C000000040007C006000600060006000600044
:1050D00060006000600060006000600060006000D0
:1050E0006000FC0300000000000000000000000061
:1050F0000000000000000000000000000000370772
:10510000EE066606660666066606660666066606B7
:105110006606FF0F00000000000000000000000015
:105120000000000000000000000000000000EE0190
:105130001C030C030C030C030C030C030C030C03E7
:105140000C039E07000000000000000000000000AB
:105150000000000000000000000000000000F0005F
:1051600098010C03060606060606060606060C034C
:105170000C03F00000000000000000000000000030
:105180000000000000000000000000000000EE0130
:105190001C030C060C060C060C060C060C060C0375
:1051A0001C03EC010C000C003E000000000000009D
:1051B0000000000000000000000000000000780275
:1051C0008C030C030603060306030603060304030D
:1051D0008C03780300030003C007000000000000F8
:1051E00000000000000000000000000000009F031D
:1051F0005806380618001800180018001800180083
:105200001800FF0000000000000000000000000087
:105210000000000000000000000000000000F0039B
:105220001C030C020C023800F000C003040304034A
:105230008C03FC01000000000000000000000000E2
:105240000000000000002000200030003000FE01BF
:1052500030003000300030003000300030003002CC
:105260003002E0010000000000000000000000002B
:1052700000000000000000000000000008028E0393
:105280000C030C030C030C030C030C030C030C03A6
:105290009C077801000000000000000000000000F2
:1052A00000000000000000000000000000001E07D9
:1052B0000C020801080118019000B000B000600065
:1052C000600020000000000000000000000000005E
:1052D0000000000000000000000000000000F70EC9
:1052E0006204460464026402EC029C019801980185
:1052F000980108000000000000000000000000000D
:105300000000000000000000000000000000BC07DA
:1053100018011001B00060006000E000900008017A
:1053200008039E07000000000000000000000000CD
:1053300000000000000000000000000000009E07C8
:1053400008010801080190009000B00060006000B2
:1053500060002000200024001C000000000000006D
:105360000000000000000000000000000000FC0140
:105370008401C400440060002000300018020802CC
:105380000C03FC010000000000000000000000030E
:10539000800080008000800080008000800080000D
:1053A00040002000400080008000800080008000DD
:1053B00080008000800000030000400040004000AA
:1053C00040004000400040004000400040004000DD
:1053D00040004000400040004000400040004000CD
:1053E00040004000400040004000000000000C0071
:1053F000100010001000100010001000100010002D
:1054000020004000200010001000100010001000CC
:105410001000100010000C00000000001C0022040E
:10542000C204800300000000000000000000000033
:10543000000000000000000000000000000000006C
:10544000000000000000000000000000000000005C
:10545000000000000000000000000000000000004C
:10546000000000000000000000000000000000003C
:10547000000000000000000000000000000000002C
:10548000000000000000000000000000000000001C
:1054900000000000C001C001C001C001C001C00186
:1054A000C0018000800080008000800080008000BB
:1054B00000000000000000008001C003C003800164
:1054C00000000000000000000000000000000000DC
:1054D000E01CE01CF01E700E380718030801840061
:1054E00000000000000000000000000000000000BC
:1054F00000000000000000000000000000000000AC
:10550000000000000000000000000000000000009B
:10551000000000000000201020102010201020109B
:10552000FE7FFE7F100810081008100810081008F1
:105530001008FE7FFE7F080408040804080408041D
:10554000000000000000000000000000000000005B
:10555000000000010001C00760191031183118392E
:10556000183938017001E001C0038007000F001DE9
:10557000003900311C311C310C310C11180DE007C1
:105580000001000100010000000000000000000018
:105590000000000000001C1036186308630C630450
:1055A0006304630263026301361D9C3780228063BB
:1055B0004063406320632063306310221836081C68
:1055C00000000000000000000000000000000000DB
:1055D000000000000000F00098018C018C018C019B
:1055E0008C018C00CC007800183E1C08360832086C
:1055F00063046304C304C303834306438E26781CF9
:10560000000000000000000000000000000000009A
:105610001C003C003C003000300010000C00060074
:10562000000000000000000000000000000000007A
:10563000000000000000000000000000000000006A
:10564000000000000000000000000000000000005A
:105650000040002000100008000C000400060003B9
:10566000000300038001800180018001800180012E
:105670008001800100030003000300060006000C07
:1056800000080010002000400000000000000000A2
:105690000200040008001000300020006000C0007C
:1056A000C000C00080018001800180018001800174
:1056B00080018001C000C000C000600060003000B8
:1056C00010000800040002000000000000000000BC
:1056D00000000000000000000000000180038003C3
:1056E00000011C713C79783DC0070001C007783D7E
:1056F0003C791C71000180038003800100000000E0
:105700000000000000000000000000000000000099
:105710000000000000000000000000000001000187
:1057200000010001000100010001FC7F00010001F7
:105730000001000100010001000100000000000064
:105740000000000000000000000000000000000059
:105750000000000000000000000000000000000049
:105760000000000000000000000000000000000039
:10577000000000000000000000001C003C003C0095
:105780003000300010000C00060000000000000097
:105790000000000000000000000000000000000009
:1057A00000000000000000000000FE7F000000007C
:1057B00000000000000000000000000000000000E9
:1057C00000000000000000000000000000000000D9
:1057D00000000000000000000000000000000000C9
:1057E00000000000000000000000000000000000B9
:1057F000000000000000000018003C003C00180001
:105800000000000000000000000000000000000098
:105810000040006000200030001000180008000C5C
:105820000004000600020003000180018000C000A7
:1058300040006000200030001000180008000C003C
:10584000040006000200000000000000000000004C
:10585000000000000000C007600C3018183018303D
:1058600018200C600C600C600C600C600C600C600C
:105870000C600C601820183018303018600CC0070D
:105880000000000000000000000000000000000018
:1058900000000000000000018001F801800180018B
:1058A00080018001800180018001800180018001F0
:1058B000800180018001800180018001C003F81F08
:1058C00000000000000000000000000000000000D8
:1058D000000000000000E007101C0818043004302D
:1058E0000C300C30003000180008000400020001E9
:1058F000800040002020102008200430FC1FFC1FE6
:105900000000000000000000000000000000000097
:10591000000000000000E003180E0C0C0C180C181E
:105920000C180018000C0006C003000E0018001030
:10593000003000300C300C300C100C18180CE00348
:105940000000000000000000000000000000000057
:10595000000000000000000C000E000E000F800E82
:10596000800E400E600E200E100E100E080E040E5B
:10597000040EFE7F000E000E000E000E000E000E44
:10598000C07F0000000000000000000000000000D8
:10599000000000000000F03FF03F10001000100079
:1059A00008000800C807280C18180810003000303C
:1059B000003000300C300C3004180418080CF003D0
:1059C00000000000000000000000000000000000D7
:1059D000000000000000800FC010203010301800C0
:1059E000180008000C008C0F6C183C301C600C6018
:1059F0000C600C600C601860182030306018C00714
:105A00000000000000000000000000000000000096
:105A1000000000000000F83FF83F1C100C080408CC
:105A200004040004000200020001000100018000E3
:105A300080008000C000C000C000C000C000C000E6
:105A40000000000000000000000000000000000056
:105A5000000000000000E007300C18180C300C307B
:105A60000C301C3038187008E007B007180E0C1CFA
:105A7000063806300630063006300C18180CE003E5
:105A80000000000000000000000000000000000016
:105A9000000000000000E00318040C080C180610B9
:105AA000063006300630063006380C3C1836F03129
:105AB00000300018001800180C0C0C060C03F00144
:105AC00000000000000000000000000000000000D6
:105AD00000000000000000000000000000000000C6
