:020000040800F2
:10000000586C0020310300083D1C0008870E0008D2
:10001000B31B0008F50A0008E926000800000000EC
:10002000000000000000000000000000790200084D
:10003000090D000800000000CD0200089D24000802
:100040004B0300084B0300084B030008792100080C
:100050004B0300084B0300084B0300084B03000848
:100060004B0300084B0300084B0300084B03000838
:100070004B0300084B0300084B0300084B03000828
:100080004B0300084B0300084B0300084B03000818
:100090004B0300084B0300084B0300084B03000808
:1000A0004B0300084B0300084B0300084B030008F8
:1000B0004B0300084B0300084B0300084B030008E8
:1000C0004B0300084B0300084B0300084B030008D8
:1000D0004B0300082D2500084B0300084B030008C4
:1000E0004B0300086D1E00084B0300084B0300087B
:1000F0004B0300084B0300084B0300084B030008A8
:100100004B0300084B0300084B0300084B03000897
:100110004B0300084B0300084B0300084B03000887
:100120004B0300084B0300084B0300084B03000877
:100130004B0300084B0300084B0300084B03000867
:100140004B0300084B0300084B0300084B03000857
:100150004B0300084B0300084B0300084B03000847
:100160004B0300084B0300084B0300084B03000837
:100170004B0300084B0300084B0300084B03000827
:100180004B0300084B03000800F002F800F064F88D
:100190000AA090E8000C82448344AAF10107DA45E2
:1001A00001D100F059F8AFF2090EBAE80F0013F0D0
:1001B000010F18BFFB1A43F001031847E4D90000F0
:1001C00004DA00000A444FF0000C10F8013B13F071
:1001D000070408BF10F8014B1D1108BF10F8015BA0
:1001E000641E05D010F8016B641E01F8016BF9D193
:1001F00013F0080F1EBF10F8014BAD1C0C1B09D1EA
:100200006D1E58BF01F801CBFAD505E014F8016B5B
:1002100001F8016B6D1EF9D59142D6D370470000ED
:100220000023002400250026103A28BF78C1FBD8FF
:10023000520728BF30C148BF0B607047642900F0E7
:100240002D81732900F08983002070471FB509F0C4
:1002500038FB1FBD10B510BD00F01EFC1146FFF7A6
:10026000F5FF05F041F800F03CFC03B4FFF7F2FFA6
:1002700003BC03F0B4FC00002A4B19680868B0E81E
:10028000F04F80F30988BFF36F8F4FF0000080F3C9
:10029000118870470000000006480068006880F37D
:1002A000088862B661B6BFF34F8FBFF36F8F00DF70
:1002B00000BF00BF08ED00E0DFF80C00016841F46A
:1002C00070010160704700BF88ED00E0EFF3098026
:1002D000BFF36F8F134B1A681EF0100F08BF20ED8D
:1002E000108A20E9F04F106008B44FF0500080F3FE
:1002F0001188BFF34F8FBFF36F8F07F0FDFE4FF0F4
:10030000000080F3118808BC19680868B0E8F04F55
:100310001EF0100F08BFB0EC108A80F30988BFF3FD
:100320006F8F704730010020EFF3058070470000A9
:100330000948804709480047FEE7FEE7FEE7FEE779
:10034000FEE7FEE7FEE7FEE7FEE7FEE704480549B5
:10035000054A064B70470000B124000889010008D7
:1003600058660020586C002058680020586800200B
:10037000704710B54C1084EA530404D54042C1F1D3
:10038000000138BF491E1B4204D55242C3F100038D
:1003900038BF5B1E00F0D7F914F0804F04D0404204
:1003A000C1F1000138BF491E14F0004F04D0524281
:1003B000C3F1000338BF5B1E10BD00000FB4044939
:1003C00010B503AA029800F0CDFA10BC5DF814FB3A
:1003D0001C0100200FB41CB5074B06AA7B446946DC
:1003E0000090059800F08FFA0020694600F09EFA10
:1003F0001CBC5DF814FB00004D05000070B5044600
:1004000085690068C10601D5302600E02026C007B6
:1004100007D070BDD4E9012130469047206A401CC6
:1004200020626D1EF6D570BD70B5044685690078F2
:10043000C00707D170BDD4E9012120209047206A70
:10044000401C20626D1EF6D570BD70B50C46054689
:10045000012A05D02878800600D5EA69002302E049
:10046000012305E05B1C934202D2E05C0028F9D135
:10047000A869E618C01AA861286A184428622846A4
:10048000FFF7BCFF04E0D5E9012114F8010B904708
:10049000B442F8D32846FFF7C7FF70BD2DE9F041FD
:1004A0000646002410687529314616A510D0AFF312
:1004B0000080002802DA404213A507E031688A076D
:1004C00001D512A502E0490704D511A5012401E0D8
:1004D000AFF3008000210A2206F1240709E0B0FBF7
:1004E000F2FCB0FBF2F302FB1C00303078541846EB
:1004F000491C0028F3D123462A463046BDE8F04186
:1005000000F0A3B9000000002D0000002B00000047
:10051000200000002DE9F05F894604464FF0000AF4
:10052000DFF824B1FB44C0F820A02046E1688847EA
:1005300000287DD0252806D0D4E901219047206AE3
:10054000401C2062F1E700255F462046E1688847AD
:100550002028064607DB312E05D2B81910F8200CEA
:1005600008B10543F1E7A80701D525F00405C4F853
:100570001CA00027C4F818A02A2E09D0304603F08A
:1005800027FB38B304EB8708303EC8F8186019E041
:1005900059F8041B204604EB87029161E168884703
:1005A000012F064618D1E069002820DA25F0200541
:1005B0001DE0D8F8180000EB800006EB4000303852
:1005C000C8F818002046E1688847064603F000FB9B
:1005D0000028EED1012F0AD02E2E08D12046E16846
:1005E00088477F1C0646022F45F02005C4DBA06922
:1005F000002803DA404245F00105A061E80701D078
:1006000025F01005A6B1A6F14100192802D8203620
:1006100045F400654A463146204625604D46FFF7C1
:100620000DFE60B1012807D0ED1D25F0070000E0A8
:1006300007E000F1080978E705F1040975E730469D
:100640007AE7206ABDE8F09FEAD3000040EA0103A0
:1006500010B59B070FD1042A0DD310C808C9121F6B
:100660009C42F8D020BA19BA884201D9012010BDA5
:100670004FF0FF3010BD1AB1D30703D0521C07E072
:10068000002010BD10F8013B11F8014B1B1B07D1D6
:1006900010F8013B11F8014B1B1B01D1921EF1D147
:1006A000184610BD032A40F2308010F0030C00F011
:1006B000158011F8013BBCF1020F624498BF11F89C
:1006C00001CB00F8013B38BF11F8013BA2F1040255
:1006D00098BF00F801CB38BF00F8013B11F00303CD
:1006E00000F05281083AC0F0088051F8043B083A03
:1006F00051F804CBA0E80810F5E7121D5CBF51F8D3
:10070000043B40F8043BAFF30080D20724BF11F84C
:10071000013B11F801CB48BF11F8012B24BF00F8B1
:10072000013B00F801CB48BF00F8012B704702F0F5
:10073000FF0343EA032242EA024200F059B970473C
:1007400070477047704753EA020C00F069802DE94A
:10075000F04B4FF00006002B1FBFB3FA83F503FAEE
:1007600005F424FA05F65E4012BF1643B2FA82F58C
:1007700002FA05F4C5F120051EBF22FA05FC44EA81
:100780000C04203556EA044C4FEA144418BF641C8C
:100790004FF000084FF00009904271EB030C39D381
:1007A000002919BFB1FA81F701FA07F6B0FA80F70C
:1007B00000FA07F6C7F120071EBF20FA07FC46EA39
:1007C0000C062037B6FBF4FCA7EB0507103F07F03B
:1007D0001F0BCBF120060CFA0BFB2CFA06F644BFDC
:1007E000B3460026202FA4BF5E464FF0000B5BEA05
:1007F000060C08BF4FF0010B19EB0B09ABFB027C99
:1008000048EB0608C01B06FB02CC0BFB03CC71EBCC
:100810000C01C1E70B46024641464846BDE8F08B55
:1008200013B54FF000004FF00001AFF30080BDE8BA
:100830001C40704710B500F0FBF8006810BD10B503
:10084000044600F0F5F8046010BD2DE9F0470D46B0
:1008500099469246044600F124080168880604D5AA
:10086000E06921F01001216000E00120A84201DDD3
:10087000471B00E00027A1697A1902EB0900081A5A
:10088000A0612078C00602D42046FFF7B7FD0026FD
:1008900008E0D4E901211AF806009047206A401CBC
:1008A000761C20624E45F4DB2078C0060AD520462F
:1008B000FFF7A4FD06E0D4E9012130209047206A2B
:1008C000401C2062381EA7F10107F4DC07E0D4E9E0
:1008D000012118F805009047206A401C2062281E5C
:1008E000A5F10105F3DC2046FFF79EFD2078000608
:1008F00002D50220BDE8F0870120FBE701694A1C10
:1009000002610878704700B58FB0CDE90131002150
:10091000059105497944CDE9031011466846FFF772
:10092000F9FD0FB000BD0000E5FFFFFF0A6802F807
:10093000010B0A60704710B5436913B1AFF3008033
:1009400001E0FFF782FD012010BD127800F12401C3
:100950000A7000224A700122EDE711684FF0FF3261
:10096000E9E70000074B70B50D467B44FFF7CBFF6E
:100970000446284600F060F810B14FF0FF3070BD1B
:10098000204670BD4F41000010B5203AC0F00B80EA
:10099000B1E81850203AA0E81850B1E81850A0E883
:1009A0001850BFF4F5AF5FEA027C24BFB1E81850DD
:1009B000A0E8185044BF18C918C0BDE810405FEA4D
:1009C000827C24BF51F8043B40F8043B08BF7047C9
:1009D000D20728BF31F8023B48BF11F8012B28BFCE
:1009E00020F8023B48BF00F8012B70474FF000028F
:1009F0000429C0F0128010F0030C00F02380CCF129
:100A0000040CBCF1020F18BF00F8012BA8BF20F89E
:100A1000022BA1EB0C0100F015B85FEAC17C24BFEA
:100A200000F8012B00F8012B48BF00F8012B70479C
:100A300000487047F8650020007B00F08000704798
:100A40004FF0000200B5134694469646203922BF67
:100A5000A0E80C50A0E80C50B1F12001BFF4F7AFB2
:100A6000090728BFA0E80C5048BF0CC05DF804EB94
:100A7000890028BF40F8042B08BF704748BF20F802
:100A8000022B11F0804F18BF00F8012B70470000B7
:100A900000487047F86500207546FFF7F9FFAE463D
:100AA00005006946534620F00700854618B020B57A
:100AB000FFF74CFCBDE820404FF000064FF0000768
:100AC0004FF000084FF0000B21F00701AC46ACE8F6
:100AD000C009ACE8C009ACE8C009ACE8C0098D4663
:100AE000704710B50446AFF300802046BDE81040C3
:100AF000FFF7BBBBFEE710B500228B5C845CA34212
:100B000001D0002010BD521C062AF6DB012010BDCA
:100B100010B5044600F092FB462000F05FFB00F0A9
:100B2000C7FB0028FBD1204600F058FB00F0C0FBBB
:100B30000028FBD100F09EFBBDE81040052003F02B
:100B4000E9B8000010B50A490C460878497801EB6D
:100B5000002080B2608008F06FFB9FED061B53EC15
:100B6000112B08F0CBF908F021FB606010BD0000EC
:100B7000D4000020333333333333F33F70B50024D4
:100B80001448016821F44021016001680160124DA0
:100B900004E0641CE4B2012003F0D8F8D5F8240284
:100BA00008B1642CF5D3642C01D3012070BD00245E
:100BB00004E0641CE4B2012003F0C8F8D5F8240274
:100BC00008B9642CF5D3642C01D3012070BD00203A
:100BD00070BD000000180240000043421CB5012116
:100BE000402001F071F84FF40070009001208DF862
:100BF000040000218DF8061002218DF805108DF8F3
:100C000007006946034800F0E5F800F061F8FFF7D7
:100C1000B5FF1CBD0018024070B50024104D04E063
:100C2000641CE4B2012003F091F8D5F8240208B165
:100C3000642CF5D3002404E0641CE4B2012003F02A
:100C400085F8D5F8240208B9642CF5D3282003F0E0
:100C50007DF8D5F8240208B1012070BD002070BDD8
:100C60000000434270B5002000244006050EFFF747
:100C7000D3FF2843641CE4B2082CF6D370BD2DE9E1
:100C8000FC4106460F4600F023F8FFF777FF10B14E
:100C90000120BDE8FC8100246D46FFF7E3FF2855E5
:100CA000641CE4B2052CF8D39DF800109DF80100F7
:100CB0009DF803300A189DF8020003441A449DF879
:100CC00004309A4201D1397030700020E1E7000011
:100CD00010B50B48016821F440210160016841F41E
:100CE00080210160074C00202060142003F012F8DE
:100CF00001202060BDE810401E2003F027B800004E
:100D000000180240A402434270472DE9FF4F81B012
:100D100006460F460025039C50E0A7EB0508A6EB0E
:100D200004091FFA88F11FFA89F0049A00F0E0FB29
:100D30001FFA88F106EB04081FFA88F0049A00F005
:100D4000D7FB381981B2A6EB050A00901FFA8AF08A
:100D5000049A00F0CDFBA7EB040B1FFA8BF11FFAEE
:100D60008AF0049A00F0C4FB07EB050A1FFA8AF127
:100D70001FFA88F0049A00F0BBFB06EB05081FFA87
:100D80008BF11FFA88F0049A00F0B2FB0098049AE5
:100D900081B21FFA88F000F0ABFB1FFA8AF11FFA4C
:100DA00089F0049A00F0A4FB6D1C05FB05F004FB20
:100DB000040103984043814200DD641EA542ACDD7E
:100DC00005B0BDE8F08F00000149086070470000E1
:100DD000143C01402DE9F041002201274FF0030CA3
:100DE00007FA02F50B682B40AB422CD10668530082
:100DF0000CFA03F4A64306600E79D0F800809E40FA
:100E000046EA080606600E79012E01D0022E12D1A4
:100E10008668A64386604E79D0F808809E4046EAF0
:100E2000080686604668AE43466045688E799640FF
:100E3000B6B235434560C568A543C560CC799C40D2
:100E4000C3681C43C460521C102AC9D3BDE8F0819A
:100E500010B54B07DB0E9A40C90800EB8100016A10
:100E60000F249C40A1430162016A1143016210BD3D
:100E70000246002012690A4200D0012070474183D7
:100E8000704701837047FEE770B50B4C0025256065
:100E90000A48016821F440410160016841F4804141
:100EA00001606560022002F051FF012020600220F5
:100EB00002F04CFF256070BD988240420004024061
:100EC00070B50B4C002525600A48016821F44001EB
:100ED0000160016841F4800101606560022002F058
:100EE00035FF01202060022002F030FF256070BD38
:100EF000A8824042000402401CB50121022000F0FB
:100F0000E3FE4FF44060009001248DF8044000207F
:100F10008DF8060003208DF805008DF8074069461E
:100F20000348FFF757FF0348046044601CBD0000FE
:100F300000040240A882404270B50B4C0025256099
:100F40000A48016821F440010160016841F4800110
:100F5000016001266660022002F0F8FE2660022091
:100F600002F0F4FE256070BDA882404200040240F9
:100F70002DE9F047814600241548016821F440011D
:100F80000160016801600025124E00274FF0010842
:100F9000C6F8A872022002F0D9FEC6F8A882600640
:100FA000040ED6F82C0208B1641CE4B2012002F051
:100FB000CDFE6D1CEDB2082DEAD3B9F1000F04D0BF
:100FC000FFF77EFF2046BDE8F087FFF7B5FFF9E7A2
:100FD00000040240008040422DE9F04105461448DB
:100FE000016821F440010160016841F48001016061
:100FF000104E4FF00008C6F8A88200240127E80927
:10100000C6F8AC026806050E022002F09FFEC6F884
:10101000A872022002F09AFEC6F8A882022002F00E
:1010200095FE641CE4B2082CE9D3BDE8F081000011
:10103000000402400080404270B50B48016821F472
:1010400040010160016841F480010160074C01200A
:1010500060602060042002F079FE002565600420B5
:1010600002F074FE256070BD00040240A882404278
:1010700010B50C48016821F440010160016841F499
:1010800080010160084C002020606060042002F0B4
:101090005DFE012020606060BDE81040042002F089
:1010A00055BE000000040240A882404270B50024F2
:1010B0001148016821F440010160016801600F4D91
:1010C0000126C5F8AC62012002F040FEC5F8A86216
:1010D000012002F03BFE07E0641CE4B2FA2C03D9C5
:1010E000FFF7C6FF012070BDD5F82C020028F3D110
:1010F000C5F8A80270BD0000000402400080404214
:101100001CB50121022000F0DFFDC0200090012469
:101110008DF8044000208DF8060003208DF80500AE
:101120008DF8074069460348FFF754FE0248046003
:1011300044601CBD000402409882404270B50B4CD4
:10114000002525600A48016821F4404101600168DA
:1011500041F48041016001266660022002F0F6FD44
:101160002660022002F0F2FD256070BD98824042A8
:10117000000402402DE9F04781460024154801682B
:1011800021F440410160016801600025124E0027F2
:101190004FF00108C6F89872022002F0D7FDC6F899
:1011A00098826006040ED6F81C0208B1641CE4B2F2
:1011B000012002F0CBFD6D1CEDB2082DEAD3B9F190
:1011C000000F04D0FFF760FE2046BDE8F087FFF770
:1011D000B5FFF9E700040240008040422DE9F041EC
:1011E00005461448016821F440410160016841F45A
:1011F00080410160104E4FF00008C6F8988200242C
:101200000127E809C6F89C026806050E022002F0D4
:101210009DFDC6F89872022002F098FDC6F89882EB
:10122000022002F093FD641CE4B2082CE9D3BDE86F
:10123000F0810000000402400080404270B50B487D
:10124000016821F440410160016841F4804101607E
:10125000074C012060602060042002F077FD00252B
:101260006560042002F072FD256070BD000402403C
:101270009882404210B50C48016821F44041016059
:10128000016841F480410160084C002020606060EA
:10129000042002F05BFD012020606060BDE810408A
:1012A000042002F053BD0000000402409882404236
:1012B00070B500241148016821F4404101600168C3
:1012C00001600F4D0126C5F89C62012002F03EFD31
:1012D000C5F89862012002F039FD07E0641CE4B211
:1012E000FA2C03D9FFF7C6FF012070BDD5F81C0208
:1012F0000028F3D1C5F8980270BD00000004024038
:10130000008040421CB50121112000F0DDFC1C20B2
:10131000009000208DF8040003208DF805000124C2
:101320008DF8074069460648FFF754FD00940220F7
:101330008DF8070069460348FFF74CFD1CBD00000F
:1013400000100240000002402DE9F04101252E4C22
:10135000002800D0257020782C4F2D4EA0B11021F0
:101360003046FFF785FDB0B108213046FFF780FD1C
:1013700088B104213046FFF77BFD60B1012138467A
:10138000FFF776FD012806D010213046FFF770FDEB
:10139000012824D035E00A2002F0BCFC0020207097
:1013A00010213046FFF764FD80B108213046FFF779
:1013B0005FFD70B104213046FFF75AFD58B101219D
:1013C0003846FFF755FD012807D01AE00120BDE897
:1013D000F0810220FBE70320F9E70420F7E708216A
:1013E0003046FFF745FD01280BD104213046FFF7B9
:1013F0003FFD012805D101213846FFF739FD00B92D
:1014000025700020E3E700001101002000000240E9
:10141000001002402DE9F04105460F4614461E46D5
:101420002A2000F0FDFA6D1CA8B200F0ECFA641C52
:10143000A0B200F0E8FA2B2000F0F2FABF1CB8B21C
:1014400000F0E1FAB61CB0B200F0DDFABDE8F04100
:101450002C2000F0E5BA2DE9FE4F00250026171AD2
:10146000A3EB010881468A46681E002F03DD4FF07A
:101470000101019107E003D14FF00001019102E069
:101480000190C7F10007B8F1000F03DD4FF0010034
:10149000009007E003D14FF00000009002E00090C0
:1014A000C8F10008474501DD3C4600E044464FF0E6
:1014B000000B601C029016E01FFA8AF11FFA89F0F7
:1014C0000C9A00F015F83D444644A54202DD2D1B60
:1014D00001988144A64202DD361B009882440BF13C
:1014E000010B1FFA8BFB02988345E5DBBDE8FE8FFD
:1014F00010B514460B460246FFF78CFF2046BDE8A8
:10150000104000F080BA2DE9F8438046089C0E4652
:1015100015461F4633462A46314640460094FFF79B
:101520009AFF3B464246314640460094FFF793FF00
:101530003B462A46394640460094FFF78CFF3B461F
:101540002A46314628460094FFF785FFBDE8F88318
:101550002DE9F0478046DDF820900D4616461F46DF
:10156000781E83B2701E82B229464046FFF752FFB2
:101570000AE0444604E0484600F045FA641CA4B280
:10158000B442F8D36D1CADB2BD42F2D3BDE8F087D2
:101590002DE9FC4101215F2000F096FB4FF48057BC
:1015A000009701248DF8044000258DF8065003268D
:1015B0008DF805608DF80740DFF868806946404681
:1015C000FFF708FC39464046FFF75BFC48F232075C
:1015D00000978DF804408DF806508DF805608DF861
:1015E0000740DFF8448069464046FFF7F3FB394681
:1015F0004046FFF746FC4FF4A06700978DF8044083
:101600008DF806508DF805608DF80740074C694647
:101610002046FFF7DFFB39462046FFF732FCBDE8E6
:10162000FC81000000180240000C02400010024043
:1016300010B5FFF7ADFF7C4C10212046FFF71FFCD3
:10164000642002F067FB10212046FFF71AFC64209B
:1016500002F060FBA1157548FFF713FC642002F04F
:1016600059FB112000F0DCF9782002F053FBB12087
:1016700000F0D6F9052000F0D0F93C2000F0CDF9BB
:101680003C2000F0CAF9B22000F0CAF9052000F0B1
:10169000C4F93C2000F0C1F93C2000F0BEF9B320B1
:1016A00000F0BEF9052000F0B8F93C2000F0B5F9D3
:1016B0003C2000F0B2F9052000F0AFF93C2000F02A
:1016C000ACF93C2000F0A9F9B42000F0A9F90320FE
:1016D00000F0A3F9C02000F0A3F9282000F09DF944
:1016E000082000F09AF9042000F097F9C12000F0DA
:1016F00097F9C02000F091F9C22000F091F90D2077
:1017000000F08BF9002000F088F9C32000F088F980
:101710008D2000F082F92A2000F07FF9C42000F02B
:101720007FF98D2000F079F9EE2000F076F9C520E0
:1017300000F076F91A2000F070F9362000F070F908
:10174000A02000F06AF9E02000F06AF9042000F01F
:1017500064F9222000F061F9072000F05EF90A2008
:1017600000F05BF92E2000F058F9302000F055F918
:10177000252000F052F92A2000F04FF9282000F02F
:101780004CF9262000F049F92E2000F046F93A20C5
:1017900000F043F9002000F040F9012000F03DF98D
:1017A000032000F03AF9132000F037F9E12000F0AF
:1017B00037F9042000F031F9162000F02EF9062048
:1017C00000F02BF90D2000F028F92D2000F025F96C
:1017D000262000F022F9232000F01FF9272000F036
:1017E0001CF9272000F019F9252000F016F92D200A
:1017F00000F013F93B2000F010F9002000F00DF983
:10180000012000F00AF9042000F007F9132000F08D
:1018100004F93A2000F004F9052000F0FEF8BDE8D4
:101820001040292000F0FCB8000C024000100240DB
:101830002DE9FF4F83B00746DDF844904FF00008D4
:1018400001974FEA590A5FEA4A7001D0012000E08F
:10185000002000EBDA0000FB09F00290203A02F0D1
:10186000FF0B049804994844401E83B207EB0A001A
:10187000401E82B23846FFF7CDFD002554E0B9F195
:101880000C0F24D0B9F1100F28D0B9F1180F2AD0BD
:10189000B9F1200F4BD1294800EB8B10465D002495
:1018A000129838B30120A040304204D03846069A3E
:1018B0000499FFF71DFE7F1CBFB20198381A5045EE
:1018C0002CD1019F0498401C80B204902AE01C494E
:1018D0000BEB4B0001EB8000465DE0E7194800EBA5
:1018E0000B10465DDBE718490BEB4B0001EB0010DA
:1018F000465DD4E70120A040304203D0069800F0B6
:1019000082F802E0109800F07EF808F1010808F073
:10191000FF08B8FBFAF00AFB108058B1641CE4B26F
:10192000082CBDD36D1CADB202988542A7D307B079
:10193000BDE8F08F4FF00008F4E7000052C1000846
:101940001EA5000892A9000882AF00082DE9FF4FEC
:1019500083B08146DDE911A61D4600274FEA5608EF
:101960000024A34622E0281B401EC1B20A2004F036
:10197000DFFD0599B1FBF0F00A21B0FBF1F201FBAC
:10198000120027B9691E8C4201DAA0B10127CDE906
:10199000016B3030C2B204FB089080B2CDF800A0D9
:1019A000109B0499FFF744FF641CE4B2AC42DAD305
:1019B00007B0BDE8F08FCDE9016B04FB089080B261
:1019C000CDF800A02022109B0499FFF731FFEBE730
:1019D0002DE9FE4F0546DDE90D68894614469A4615
:1019E0000C9F0BE0CDE90168534649462846009715
:1019F000FFF71EFF05EB560085B2641C2278002A13
:101A0000F0D1BDE8FE8F10B50446200A00F01CF8A6
:101A1000E0B2BDE8104000F017B800F015B80000C3
:101A200070B50646074D4FF4004421462846FFF79F
:101A300026FA304600F008F821462846BDE87040F6
:101A4000FFF71FBA000C02402DE9F0410546DFF810
:101A5000508002214046FFF712FA0024114F4FF444
:101A6000805631463846FFF70AFA280604D5202169
:101A70004046FFF706FA03E020214046FFF7FFF952
:101A800031463846FFF7FDF96806050E641CE4B2DE
:101A9000082CE6D34046BDE8F0410221FFF7F1B93A
:101AA000000C0240001802407CB50121202000F00B
:101AB0000BF94FF4C064009401208DF8040000225B
:101AC0008DF8062003228DF805208DF80700054DBE
:101AD00069462846FFF77EF921462846FFF7D1F9E7
:101AE0007CBD0000001402402DE9F04106460F467F
:101AF00015461C46FFF7A0FA7006000EFFF76CFAB9
:101B0000FFF7D4FA20B1FFF7B3FA0120BDE8F08166
:101B10003846FFF761FAFFF7C9FAFFF78DFA01209F
:101B200000EB4600C0B2FFF757FAFFF7BFFA08E034
:101B3000012D0CD00120FFF71BFA20706D1EEDB2B5
:101B4000641C002DF4D1FFF793FA0020DEE700209B
:101B5000FFF70EFA2070F1E72DE9F04104460F4639
:101B600016461D46FFF768FA6006000EFFF734FAC6
:101B7000FFF79CFA20B1FFF77BFA0120BDE8F08166
:101B80003846FFF729FAFFF791FA00240BE0285DA9
:101B9000FFF722FAFFF78AFA18B1FFF769FA012076
:101BA000ECE7641CE4B2B442F1D3FFF761FA002021
:101BB000E4E7FEE73EB541F6FF740121080700F0B7
:101BC00091F8012000F07AF8002000F009FA45F2BF
:101BD0005005A8422ED0012000F01AF904E0641C40
:101BE000A4B20A2002F096F8412000F0F5F800288F
:101BF000F5D00CB34FF4807000F020F9012000F014
:101C000017F97F200190FF20029000200090684685
:101C100000F0BEF900231A4606210E2000F09EFABD
:101C200005231E220621172000F08AFA29460020EB
:101C300000F0DAFA00203EBD01203EBD70470000F2
:101C400030B50F23C27801250178002A1FD0154A2C
:101C5000126802F4E062C2F5E062C2F30722C2F148
:101C60000404D3404278A24084781C4014432201EB
:101C700001F1E02181F80024007800F01F018D407F
:101C80004009800000F1E020C0F8005130BD01F0B3
:101C90001F0085404809800000F1E020C0F8805115
:101CA00030BD00000CED00E0024908430249086025
:101CB000704700000000FA050CED00E001490862E1
:101CC0007047000000000E42054A002903D0116849
:101CD0000143116070471168814311607047000033
:101CE00030380240054A002903D0116801431160D1
:101CF000704711688143116070470000403802400E
:101D0000054A002903D0116801431160704711682A
:101D1000814311607047000044380240054A0029A1
:101D200003D011680143116070471168814311604D
:101D3000704700002438024070B5244B196801F048
:101D40000C01234C00291ED0661004291DD008293F
:101D50001DD00460196801F0F00109091D4A545CA6
:101D60000168E14041601C6804F4E054A40A145D79
:101D700021FA04F484601B6803F460435B0BD25CBB
:101D8000D140C16070BD0460E4E70660E2E70F4A3D
:101D9000121F1168C1F38055116801F03F0135B180
:101DA000B6FBF1F11468C4F38814614305E0B4FB99
:101DB000F1F11468C4F3881461431268C2F301425C
:101DC000521C5200B1FBF2F10160C3E70838024037
:101DD0000024F400200100200246002051090129BE
:101DE0000BD002290DD00949096802F01F02012316
:101DF00093400B4200D001207047044974390968B0
:101E0000F3E70249091F0968EFE700007438024050
:101E1000064900220A700A70012804D0042801D162
:101E20000520087070470120087070477038024024
:101E300001490860704700003C0E4742C0F3012191
:101E4000032907D1074B196821F4F812064901400C
:101E500011431960034A68321168C0F30B00014353
:101E60001160704708380240FFFCFF0F10B54FF4B7
:101E70008074204600F058F8012802D1204600F076
:101E80001BF8BDE810404FF40030FEF79DBF01097C
:101E900001EB8101490000F00F000844C0B2704717
:101EA000002103E0491CC9B20A38C0B20A28F9D29D
:101EB000090740EA1160704780B240F08000C143DA
:101EC0000348026802F0800211430160704700007D
:101ED0000C28004008B5002000900E490868400614
:101EE00015D44FF0FF3008608B13086800F04000F5
:101EF000009A521C0092009A9A4201D00028F4D015
:101F00000868400601D5012008BD002008BD012059
:101F100008BD00000C2800400248016821F0800143
:101F2000016070470C280040024600200349096800
:101F3000034B1940114200D0012070470C2800408B
:101F40007F3F010010B502460C460F4801680F485C
:101F50000140C1F305402070C1F30623637001F016
:101F60007F03A37001F48001090CE170002A0AD1FB
:101F7000FFF78DFF20706078FFF789FF6070A07811
:101F8000FFF785FFA07010BD002800407F7F7F0015
:101F900070B504460025114ECA20306053203060D1
:101FA000FFF798FFA8B10D481C38016821F04001E7
:101FB000016001682268114301600848A168143873
:101FC00001600168A28841EA02410160FFF7A4FFB5
:101FD0000125FF203060284670BD00002428004005
:101FE00008B5034901EB800000900098006808BD27
:101FF0005028004070B505460C460026002D06D13D
:102000006078C10603D520F010000A3060702DB151
:102010006078FFF73CFFA078FFF739FF55B1A07853
:10202000E17840EA014560782178000240EA4130D9
:1020300005430FE0E078FFF733FF05046078FFF712
:102040002FFF45EA0025A078FFF72AFF05432078F7
:1020500045EA40350E4CCA20206053202060FFF72F
:1020600039FF88B10B480540094820380560FFF763
:1020700053FF07481C380068800604D400F08EF82F
:1020800010B1012600E00126FF202060304670BD1F
:10209000242800403FFFFF002DE9F04105460C4693
:1020A00000260020244F002D06D03968490608D5A7
:1020B0002078FFF7ECFE05E03968490602D4E070AD
:1020C00000E0E07055B1A078217840EA01456078E1
:1020D000E178000240EA014005430FE02078FFF775
:1020E000DFFE05046078FFF7DBFE45EA0025A078F7
:1020F000FFF7D6FE0543E07845EA00450E4CCA20BE
:102100001C34206053202060FFF7E4FE78B10B48B8
:102110000540094808380560FFF7FEFE386880066C
:1021200004D400F03BF810B1012600E00126FF20A6
:1021300020603046BDE8F081082800407F7F7F00A6
:1021400008B58DF802208DF801108DF800308DF85B
:10215000030069460020FFF74DFF08BD08B58DF864
:1021600000008DF801108DF802208DF803306946CB
:102170000020FFF791FF08BD10B54FF480642046A2
:10218000FFF7D2FE012802D12046FFF795FEBDE8F9
:1021900010404FF48000FEF717BE000018B5002075
:1021A0000090104BCA201860532018600D49183950
:1021B000086820F0A00008604FF40034086800F0C0
:1021C0002000009A521C0092009AA24201D00028DE
:1021D000F4D00868800601D5012000E00020FF212E
:1021E000196018BD2428004008B5034A02EB80009E
:1021F00000900098016008BD5028004010B5FFF71E
:102200001DF84720FEF7EAFFFFF752F80028FBD140
:102210000120FEF7AFFF064C20700020FEF7AAFF5A
:102220006070FFF727F8BDE81040052001F072BD8F
:10223000D40000202DE9F04387B001210220FFF7F0
:1022400043FD4FF4805801214046FFF759FD3827E0
:10225000059702258DF8185000248DF81A400320A8
:102260008DF8190001268DF81B60DFF8849005A910
:102270004846FEF7AFFD052203214846FEF7E8FD7C
:10228000052204214846FEF7E3FD05221146484693
:10229000FEF7DEFD01214046FFF740FD00214046EC
:1022A000FFF73CFDADF800404FF48270ADF802003E
:1022B000ADF80440ADF80650ADF808602802ADF85E
:1022C0000A00ADF80C70ADF80E400720ADF8100014
:1022D000084C6946204600F04EF80121204600F0E7
:1022E00033F8FF2000F008F807B0BDE8F0830000E5
:1022F000000402400030014070B505460A4C02213E
:10230000204600F02DF80028F9D02946204600F09C
:1023100030F80121204600F023F80028F9D02046AB
:1023200000F025F8C0B270BD0030014001460548FC
:10233000028822F03802028002880A4302800121CA
:1023400000F002B800300140002904D0018841F0BB
:10235000400101807047018821F0400101807047F1
:102360000246002012890A4200D00120704780896D
:1023700070478181704730B5028802F441530A8862
:102380004C88CD8822438C882C4322430C892243DD
:102390004C8922438C892243CC8922431A430280F0
:1023A000828B22F400628283098A018230BD0000A0
:1023B0000CB50022019200922749086840F4803051
:1023C00008604FF4A043086800F4003000900198C2
:1023D000401C0190009810B901989842F3D1086808
:1023E000800302D50120009000E0009200980128AF
:1023F00031D119484030026842F0805202601748DB
:10240000026842F4404202601348083002680260E9
:10241000026842F400420260026842F4A052026084
:10242000021F0F4B13600A6842F080720A600A684C
:102430009201FCD50B4A40F205711160016821F050
:1024400003010160016841F0020101600168C1F30C
:1024500081010229FAD10CBD003802400070004011
:1024600008544007003C024010B50120FEF750FB25
:102470000720FEF74DFBBDE810402020FEF748BBCB
:102480004FF0E021042804D0086920F0040008611E
:102490007047086940F004000861704710B506F005
:1024A00017FA012803D0BDE8104005F0EDBE10BDBD
:1024B00010B51248016841F47001016010480168CC
:1024C00041F0010101600E4A0021083211600268EA
:1024D0000C4B1A400260031D0B4A1A60026822F47A
:1024E0008022026006480C300160FFF761FF03495B
:1024F0004FF000608039086010BD000088ED00E0FA
:1025000000380240FFFFF6FE1030002410B5FFF740
:10251000ABFFB42001F0FEFBFFF770FEFEF712FBED
:102520000148406810BD0000D400002070B5164C72
:1025300040F22551204600F039F800280ED0204600
:1025400000F0CEF8C1B2114A1088030406D4440446
:102550004FF0000307D50A2901D0138070BD40F465
:102560000040108070BD0D290AD0094DC0F30D0444
:102570002955401C80B21080C728F3D9138070BD44
:1025800040F48040108070BD001001401801002010
:10259000E4110020002904D0818941F40051818197
:1025A0007047818921F400518181704770B5002402
:1025B00040F66A12C1F3421301F01F05012606FA24
:1025C00005F2012B0CD0022B0DD0838A1340090A8F
:1025D0008E40008830400BB100B10124204670BD10
:1025E00083891340F3E7038A1340F0E710B540F600
:1025F0006A13C1F3421301F01F040121A140012B12
:1026000007D0022B07D014303AB102680A430260A7
:1026100010BD0C30F8E71030F6E702688A4302601C
:1026200010BD00007FB504460D46208A20F44051BD
:10263000E88808432082A08941F20C618843A98878
:102640002A8911436A8902431143A181A08A20F497
:102650004071A8890843A0826846FFF76DFB1E48B9
:10266000844202D01D48844201D1039800E00298C0
:10267000A189090408D500EBC00101EB001029680D
:102680004900B0FBF1F007E000EBC00101EB0010E6
:1026900029688900B0FBF1F06422B0FBF2F1090176
:1026A0000B096FF018056B4300EB8300A3891D0431
:1026B0004FF0320307D503EBC000B0FBF2F000F09F
:1026C0000700084306E003EB0010B0FBF2F000F057
:1026D0000F00084320817FBD00100140001401401D
:1026E0008088C0F308007047FEE7000070B504035F
:1026F00000F004F900F0AAF80B4D0020286020201B
:10270000FFF7FAFDC4F30740FFF7F6FDC4F3072017
:10271000FFF7F2FDE0B2FFF7EFFD01202860BDE812
:10272000704000F093B80000B88240427CB50121AF
:102730000220FFF7C9FA01214020FFF7C5FA4FF444
:102740008040009001248DF8044000208DF80600A0
:1027500003208DF805008DF8074069460C48FEF708
:1027600039FB802000900B4D69462846FEF732FB6E
:1027700080212846FEF785FB07480460FFF75AFDD5
:102780000820FFF7D3FD00F033F8044908807CBD32
:102790000004024000180240B882404212010020AA
:1027A0002DE9F04105460C461646104F0020C7F8AB
:1027B000B8020320FFF7A0FDC4F30740FFF79CFD1C
:1027C000C4F30720FFF798FDE0B2FFF795FD002462
:1027D00005E0FF20FFF790FD2855641CA4B2B44229
:1027E000F7D30120C7F8B802BDE8F081008040426D
:1027F00070B50D4D00242C609020FFF77DFD00206A
:10280000FFF77AFD0020FFF777FD0020FFF774FD4A
:10281000FF20FFF771FD44EA0024FF20FFF76CFD65
:1028200020430121296070BDB882404210B5064C9A
:10283000002020600520FFF75FFDFF20FFF75CFD13
:102840000121216010BD0000B882404210B5FFF7A1
:10285000EDFFC007FBD110BD2DE9F05F80468A4631
:102860001546DFF894904FEA1A37CAF30B06C6F5FF
:102870008054A54233D82C4631E0311819F80110A4
:10288000FF2903D1401C80B2A042F6D3A04214D24B
:102890003846FFF72BFF002006E0821918F80010D9
:1028A00009F80210401C80B2A042F6D359464FF4FA
:1028B0008052484600F02EF804E022465146404639
:1028C00000F028F8A54214D07F1C0026A044A244A2
:1028D000281B85B24FF48054A54200D82C464FEAFD
:1028E000073B4FF4805259464846FFF759FF0020F6
:1028F000CAE7BDE8F09F0000E401002010B5044CD9
:10290000002020600620FFF7F7FC0120206010BDAA
:10291000B88240422DE9F04107460E461546F0B216
:10292000C0F58074A54200D82C464FF4807807E0AB
:1029300027442644281B85B24446A54200D82C468D
:1029400022463146384600F005F8A542F0D1BDE8F0
:10295000F08100002DE9F04105460C461646FFF7D0
:10296000CDFF114F0020C7F8B8020220FFF7C4FCCA
:10297000C4F30740FFF7C0FCC4F30720FFF7BCFC1B
:10298000E0B2FFF7B9FC002404E0285DFFF7B4FCD7
:10299000641CA4B2B442F8D30120C7F8B802BDE861
:1029A000F041FFF753BF00000080404203B401989C
:1029B0004100009850EAC12018BF04204A0D18BFFA
:1029C00040F0010040F2FF72B2EB515F08BF40F0EF
:1029D0000200012808BF052002B070470000000077
:1029E00070B5C1482DED020B2DED0E8B82B0119DFF
:1029F00025F000449FEDBEDB9FEDBFEB84423EDB44
:102A0000A4F140511098A1F17F6108430FD0BC4858
:102A1000844202DC28D1109830B39DED100B02B037
:102A2000BDEC0E8B02B0BDE8704001F09DB89DED8D
:102A3000100B53EC1D2B51EC100B06F011FC9DED0F
:102A4000100B41EC180B53EC1E2B51EC100B06F045
:102A500007FC53EC182B06F0A9F941EC100B02B05F
:102A6000BDEC0E8B02B070BD0120FDF7E8FE02B098
:102A7000BDEC0E8B02B0BDE8704001F089B8A148F2
:102A80009FEDA18B844256DA9DED100BB4F1795F76
:102A90000ADA51EC100BFFF789FF042808BF01F098
:102AA00087F89DED100BDAE753EC102B51EC100B6F
:102AB00006F0D6FB41EC190B95480621B0EE490A09
:102AC000F0EE690A784400F03BFF53EC192B51EC0F
:102AD000100B06F0C5FB41EC1A0B8E48B0EE490A0C
:102AE000F0EE690A0421784400F02AFF53EC192B18
:102AF00051EC100B06F0B4FB53EC182B06F056F912
:102B000041EC100B51EC1A0B53EC102B06F0F6F9BC
:102B1000CDE900019DED000B53EC102B9DED100B4A
:102B200051EC100B06F09CFB9DED101B53EC112B90
:102B300006F03CF9D2E09DED100B51EC100B01F0CA
:102B40006DFE53EC182B06F089FC9FED730BCDE95D
:102B5000000153EC102B9DED000B51EC100B06F017
:102B60007FFB41EC190B6E480621B0EE490AF0EEEE
:102B7000690A784400F0E4FE53EC192B51EC100B79
:102B800006F06EFB41EC1B0B6648B0EE490AF0EE16
:102B9000690A0421784400F0D3FE53EC192B51EC60
:102BA000100B06F05DFB53EC182B06F0FFF841EC20
:102BB0001C0B51EC190B04F08BFC41EC180B5A4820
:102BC0009FED5BABA04222DC53EC1C2B51EC1B0BAA
:102BD00006F094F9CDE900019DED000B51EC180BC6
:102BE00053EC102B06F03CFB53EC182B06F0DEF8F0
:102BF00053EC1A2B06F034FB53EC1D2B06F006FDAC
:102C000053EC1E2B06F02AFC41EC100B5FE08DED1F
:102C1000008B002000909DED000B51EC180B53EC45
:102C2000102B06F0C3F89DED000B41EC1E0B53EC8E
:102C3000102B51EC100B06F013FB53EC192B06F084
:102C40000DFC53EC1E2B06F059F941EC190B53EC1B
:102C50001C2B51EC1B0B06F051F941EC1B0B53ECF8
:102C60001A2B51EC190B06F0FBFA53EC1D2B06F056
:102C7000F5FB41EC190B53EC1A2B51EC180B06F039
:102C8000EFFA53EC1B2B06F0EBFA53EC192B06F082
:102C9000BDFC9DED000B41EC180B53EC1A2B51ECD5
:102CA000100B06F0DDFA9FED249B53EC192B06F078
:102CB000D5FB41EC100B51EC180B53EC102B06F02C
:102CC000A5FC53EC192B06F0C9FB41EC100B002DB1
:102CD0003FF7C5AE51EC100B06F02AF841EC100B93
:102CE000BDE60000000000000000F03F0000000012
:102CF000075C143326A6913C182D4454FB21F93F60
:102D00000000F07F0000E03F000000000000F03F06
:102D100060AE00006EAE0000000000000000E03F6A
:102D2000B2AD0000C0AD00003333EF3F0000000043
:102D30000000000000000040182D4454FB21E93F32
:102D400070B59B482DED020B2DED068B079D25F0F0
:102D50000044A04218DC9748844202DC0AD106985D
:102D600040B19DED060BBDEC068B02B0BDE8704096
:102D700000F0FABE002DCCBF9FED8F0B9FED900BA6
:102D8000BDEC068B02B070BD8F48A04215DD8F48A8
:102D9000A042D8BF4FF0FF3458DD9DED060B51EC3B
:102DA000100BFFF703FE042808BF00F001FF9DEDA4
:102DB000060BBDEC068B02B070BD9DED060B51EC11
:102DC000100B01F02BFDCDE9060181489FED828BB0
:102DD000A0423CDD8248A0421FDD00249FED82AB73
:102DE0009DED060B53EC1A2B51EC100B05F0DEFF9A
:102DF0009DED060B41EC190B53EC1A2B51EC100B0B
:102E000006F02EFA53EC182B06F000FC53EC192BAD
:102E100006F074F8CDE9060149E09DED060B0124AA
:102E200053EC182B51EC100B05F0C0FF9DED060B79
:102E300041EC190B53EC182B51EC100B06F0E6FB90
:102E400053EC192B06F05AF8CDE906012FE068483B
:102E5000A0421FDD02249FED689B9DED060B53EC05
:102E6000192B51EC100B06F0FBF953EC182B05F065
:102E70009DFF9DED060B41EC180B53EC192B51EC0B
:102E8000100B06F0C3FB53EC182B06F037F8CDE916
:102E900006010CE09DED060B032453EC102B9FED77
:102EA000580B51EC100B06F029F8CDE906019DED09
:102EB000060B53EC102B51EC100B06F0D1F941EC42
:102EC000180B53EC182B06F0CBF941EC190B4E48BC
:102ED0000621B0EE490AF0EE690A784400F030FDB0
:102EE00053EC182B51EC100B06F0BAF941EC180B0F
:102EF0004648B0EE490AF0EE690A0521784400F030
:102F00001FFD53EC192B51EC100B06F0A9F941EC05
:102F1000100B51EC180B53EC102B002C0EDA05F0B3
:102F200045FF9DED061B53EC112B06F099F99DED25
:102F3000061B53EC112B06F091FA35E005F036FF35
:102F40009DED061B53EC112B06F08AF941EC100B9A
:102F50002F48784400EBC40090ED001B51EC100B9F
:102F600053EC112B06F052FB9DED061B53EC112B7D
:102F700006F04CFB41EC100B2648784400EBC400F3
:102F800090ED001B51EC100B53EC112B06F066FA80
:102F900041EC100B002DA2BFBDEC068B02B070BD42
:102FA00051EC100B05F0C4FE41EC100B01E70000E2
:102FB000000010440000F07F182D4454FB21F93F1D
:102FC000182D4454FB21F9BF0000DC3F0000203ED7
:102FD0000000F33F00000000000000000000F03F90
:102FE0000000E63F0000000000000000000000407C
:102FF0000080034000000000000000000000F83FD7
:10300000000000000000F0BF02AB0000B8AA000002
:1030100042AA0000FAA9000070B56B4E2DED040B1A
:103020002DED028B82B0DDF81CC0DDE905235C428A
:103030002CF000411C4341EAD474049D22F000406E
:10304000B44205D86C422C4340EAD474B4420BD944
:103050009DED061B9DED040B02B0BDEC028B04B090
:10306000BDE8704000F08ABDACF14054A4F17F642B
:103070001C430BD0022404EAAC7444EAD274054326
:103080009FED538B9FED542B07D015E09DED040B66
:1030900051EC100B00F0EEFD42E0002C11BF012CB2
:1030A0009DED040B02B0BDEC028B04BF04B070BDFB
:1030B000022C38D0032C3BD00B439FED491B9FEDD6
:1030C0004A0B0AD0B14218D1B04209D121F0804157
:1030D00020F08040079105900FE0002A15DA10E0FB
:1030E000434B7B44002C08BF93ED000B0DD0012C0B
:1030F00010D0022C17D0032C1AD0B0421DD1002AB8
:1031000003DAB0EE410AF0EE610A02B0BDEC028BC8
:1031100004B070BD93ED000B51EC100B05F008FEF0
:1031200041EC100BF1E7B0EE480AF0EE680AECE76C
:10313000B0EE420AF0EE620AE7E7401A00153C28BA
:10314000C8BF8DED000B19DCBCF1000FBEBF10F144
:103150003C0F9FED290B8DED000B0FDB9DED060B5A
:1031600053EC102B9DED040B51EC100B05F0C6FE3B
:1031700001F054FB00F07EFDCDE90001002C08BFFA
:103180009DED000BC1D0012C10D0022C9FED1C0B2B
:1031900053EC102B9DED000B51EC100B0DD006F0F5
:1031A00035FA53EC182B06F031FAB9E7019880F0A4
:1031B000004001909DED000BA7E706F027FA53ECC5
:1031C000182B06F04BF9ABE70000F07F0000000081
:1031D000182D4454FB210940182D4454FB2109C0EB
:1031E000182D4454FB21F9BF182D4454FB21F93FFD
:1031F0005AA90000000000000000000000000000CC
:10320000075C143326A6A13C10B52F499FED2C1B5B
:103210002DED020B84B0059820F000408842D8BF05
:103220009DED040B2DDD2949884209D1049840B950
:103230004FF00100FDF703FB00F0AAFC06B010BD43
:1032400005DB9DED040B00F08FFC06B010BD684659
:103250009DED040B00F0A0F810F0030004BF9DEDFD
:10326000021B9DED000B0CD001280ED09DED021B22
:103270009DED000B022817D0012000F0DDFB06B009
:1032800010BD00F0A5FA06B010BD9DED021B9DED2E
:10329000000B012000F0D0FB51EC100B05F048FDB5
:1032A00006B041EC100B10BD00F092FA51EC100B7F
:1032B00005F03EFD06B041EC100B10BD0000000013
:1032C0000000000000000000FB21E93F0000F07F4B
:1032D00010B52F499FED2C1B2DED020B84B00598E6
:1032E00020F000408842DCBF00209DED040B32DD61
:1032F0002849884209D1049840B94FF00100FDF7F0
:103300009EFA00F045FC06B010BD05DB9DED040BF8
:1033100000F02AFC06B010BD68469DED040B00F0DD
:103320003BF810F0030011D0012818D09DED021BCE
:103330009DED000B02281AD000F04AFA51EC100B58
:1033400005F0F6FC06B041EC100B10BD9DED021B24
:103350009DED000B012000F06FFB06B010BD9DED50
:10336000021B9DED000B00F033FA06B010BD0120EA
:1033700000F062FB51EC100B05F0DAFC06B041ECFA
:10338000100B10BD00000000000000000000000055
:10339000FB21E93F0000F07F2DE9F14F04462DEDC0
:1033A000020B2DED088B8AB09FEDE70B80ED020B31
:1033B000139EE74826F0004585420ADC9DED120B7E
:1033C000002084ED000B0AB0BDEC088B03B0BDE813
:1033D000F08FE0489FEDE0AB9FEDE1BBA84247DDF9
:1033E000E14F9FEDE39B9FEDE48B9DED120B53ECC2
:1033F0001A2B51EC100B002E1CDD06F007F941ECE6
:10340000100BBD4208D053EC1B2B51EC100B06F0F7
:10341000FDF8C4E900010BE053EC192B51EC100B43
:1034200006F0F4F853EC182B06F0F0F8C4E90001AC
:103430000120C8E705F0BAFC41EC100BBD4208D0F2
:1034400053EC1B2B51EC100B05F0B0FCC4E9000150
:103450000BE053EC192B51EC100B05F0A7FC53ECCF
:10346000182B05F0A3FCC4E900014FF0FF30AAE7D8
:10347000C348A84279DB9DED120B51EC100B01F013
:10348000CDF941EC180B9FEDC00B53EC102B05F060
:10349000E7FE9FEDBF1B53EC112B05F087FC05F0F9
:1034A00085FE074605F0B1FE41EC190B53EC1A2BD3
:1034B00005F0D6FE53EC182B05F0D0FF41EC180BAD
:1034C00053EC1B2B51EC190B05F0CAFEDFF8C8A218
:1034D00041EC100B4FEA15580125FA4453EC102B20
:1034E00051EC180B06F092F8032DC4E900013DD011
:1034F000C1F30A5005EB4511A8EB000011398142D8
:1035000034DA0AEB051BB0EE48AA9BED000BF0EE97
:1035100068AA53EC102B51EC190B05F0A1FE41ECFD
:103520001B0B51EC1A0B53EC1B2B06F06FF841EC04
:10353000180B51EC1A0B53EC182B06F067F853ECF0
:103540001B2B06F063F89BED020B41EC1A0B53ECBE
:10355000102B51EC190B05F083FE53EC1A2B06F0DF
:1035600055F841EC100B6D1CB8E70EE0002EA8BF1B
:103570003846BFF628AF94ED000B51EC100B05F068
:10358000D7FBC4E9000178421DE7C6F3130040F4FD
:10359000801EC6F30A50A0F2F530471100F01F0557
:1035A000C5F12000DDF848B0089000200690079093
:1035B0000520EC467949002D07EB0002794408BF4D
:1035C00051F8221009D051F8223001EB8201AB40B2
:1035D0004A68089922FA01F11943A1FB0E26A1FBC2
:1035E0000B131A449A4234BF0123002303EB06084D
:1035F0000CEB8003D3E901A60E448E4234BF0121B7
:10360000002192448A4411B1924502D903E09245C7
:1036100001D2012100E00021C3E901A641444CF898
:103620002010011EA0F10100C4DC029800F100503E
:10363000850F0298DDE903678000DDF8148005F04E
:10364000E4FD41EC1A0B304605F0F6FD9FED541BEE
:1036500053EC112B05F004FE41EC1B0B384605F032
:10366000EBFD9FED511B53EC112B05F0F9FD41ECE7
:10367000180B404605F0E0FD9FED4D1B53EC112B60
:1036800005F0EEFD41EC190B51EC180B53EC192B26
:1036900005F08CFB53EC1B2B05F088FB53EC1A2B2D
:1036A00005F084FBCDE90801002008909DED080B92
:1036B00053EC1A2B51EC100B05F0A8FF53EC1B2B0D
:1036C00005F0A4FF53EC182B05F0A0FF53EC192BC9
:1036D00005F0C4FE9FED381B53EC112B05F0C0FD27
:1036E0009FED370B41EC180B53EC102B9DED080BA5
:1036F00051EC100B05F0B4FD53EC182B05F056FB04
:103700009FED310B41EC180B53EC102B9DED080B8A
:1037100051EC100B05F0A4FD53EC182B05F046FB03
:1037200041EC100B139810F0004F06D06D4251EC95
:10373000100B05F0FDFA41EC100B284684ED000B50
:1037400041E6000000000000000000000000000052
:10375000FB21E93F7CD9024000004054FB21F93FA6
:103760003163621A61B4D03DFB21F93F00000000D3
:103770000000601A61B4D03D7370032E8A19A33B18
:10378000FB2139410000000083C8C96D305FE43F70
:10379000000000000000E03F6AA50000B8A400009F
:1037A000000000000000103E000000000000103C7F
:1037B000000000000000103A182D4454FB21F93D90
:1037C0003326A611460B113C00000054FB21F93DA5
:1037D00010B52DED040B2DED088B82B0B0EE419AA3
:1037E000F0EE619A0B9820F000449FED4BABB4F1E2
:1037F000795F11DA9DED0A0B51EC100B05F0D6FC48
:10380000002801BFB0EE4A0AF0EE6A0A02B0BDEC31
:10381000088B04BF04B010BD9DED0A0B53EC102BB8
:1038200051EC100B05F01CFD41EC180B3C48062137
:10383000B0EE480AF0EE680A784400F081F853ECE4
:10384000182B51EC100B05F00BFD9DED0A0B41EC14
:103850001B0B53EC192B51EC100B05F001FD41EC47
:10386000190B53EC1B2B51EC180B05F0F9FC53EC26
:10387000192B05F0CBFE9FED2C0B41EC190B53ECF3
:10388000102B51EC180B05F0EBFC41EC100B284809
:10389000844210DA53EC192B51EC100B05F0B6FEF4
:1038A00053EC1A2B05F0DAFD41EC100B02B0BDEC25
:1038B000088B04B010BD1F48A042BCBF9FED1E1B6B
:1038C0008DED001B06DBA4F5001001900020009098
:1038D0009DED001B51EC100B53EC112B05F096FEE7
:1038E0009DED000B41EC180B53EC102B51EC1A0B17
:1038F00005F08CFE41EC1A0B53EC192B51EC180B14
:1039000005F084FE53EC1A2B05F0A8FD41EC100BDA
:10391000CCE7000000000000000000000000F03FC5
:10392000D4A1000000000000000000000000E03F03
:103930003333D33F0000E93F000000000000D23FD6
:1039400070B504462DED028B4D1E00EBC500B0EEA8
:10395000408AF0EE608A90ED000B35F0060017D03B
:1039600053EC182B51EC100B05F07AFC41EC100BCA
:103970006D1E04EBC50090ED001B51EC100B53ECD9
:10398000112B05F013FA41EC100B35F00600E7D1CE
:10399000022D36D0042D1CD0062D1CBFBDEC028B91
:1039A00070BD53EC182B51EC100B05F059FC94ED45
:1039B0000A1B53EC112B05F0F9F953EC182B05F009
:1039C0004FFC94ED081B53EC112B05F0EFF941EC83
:1039D000100B53EC182B51EC100B05F041FC94ED3F
:1039E000061B53EC112B05F0E1F953EC182B05F0F5
:1039F00037FC94ED040B53EC102B05F0D7F941EC98
:103A0000100B53EC182B51EC100B05F029FC94ED26
:103A1000021B53EC112B05F0C9F953EC182B05F0E0
:103A20001FFC94ED001B53EC112B05F0BFF9BDEC0E
:103A3000028B41EC100B70BD31B504462DED040B2B
:103A40002DED0A8BB0EE41BAF0EE61BA0B989DED08
:103A50000A0B20F00040B0F1795F0DDA51EC100B49
:103A6000FEF7A4FF042808BF00F0A2F89DED0A0BA2
:103A7000BDEC0A8B05B030BD53EC102B51EC100B94
:103A800005F0EEFB41EC180B9DED0A0B53EC182BE7
:103A900051EC100B05F0E4FB41EC190B2C48B0EE97
:103AA000480AF0EE680A05217844FFF749FF9FEDC8
:103AB0002ACBB0EE40AAF0EE60AA9CB353EC1C2BCC
:103AC00051EC190B05F0CCFB41EC1C0B53EC1A2B01
:103AD00051EC190B05F0C4FB9FED210B41EC190BC8
:103AE00053EC102B51EC1B0B05F0BAFB53EC192BCC
:103AF00005F08CFD53EC182B05F0B2FB53EC1B2B9F
:103B000005F084FD53EC1C2B05F080FD9DED0A1B98
:103B100053EC112B05F0A2FCBDEC0A8B05B041EC77
:103B2000100B30BDFFE753EC1A2B51EC180B05F0CE
:103B300097FB53EC1C2B05F039F953EC192B05F0CE
:103B40008FFB9DED0A1B53EC112B05F02FF9E3E7DA
:103B500064A0000000000000495555555555C5BFEB
:103B6000000000000000E03F10B553EC102B51ECBA
:103B7000100B05F01BF941EC100B10BD10B553EC08
:103B8000112B51EC100B05F011F941EC100B10BD8D
:103B90009FED050B10B553EC102B51EC100B05F0FD
:103BA000ADF941EC100B10BD00000000000000005A
:103BB0009FED050B10B553EC102B51EC100B05F0DD
:103BC0004FFB41EC100B10BD000000000000001086
:103BD00030380A2801D20120704700207047704712
:103BE000FEB505460E460024684600F071FF00222F
:103BF0009FED1C1A6946012355F8220056F82270E1
:103C0000C01B00D5404200EE100AB8EEC00A20EEFC
:103C1000010A01EB8200D0ED000AF5EEC00AF1EED8
:103C200010FA10D0C0EE201AB7EE000A31EEC00A2A
:103C30000D4FB0EEC00A10EE100AB8420DDD03FAC7
:103C400002F0044309E010EE100A084F3844084F10
:103C5000B84202D303FA02F00443521C032ACBDB1E
:103C60002046FEBD00008037295C0F3E666666C1B7
:103C70009A99D90010B541EC100BFFF761F851EC9F
:103C8000100B10BD064C0649891C481EFCF7F7FFB7
:103C9000FEF73CFC6060FA2003F0BAFFF3E7000097
:103CA0000000002070B50446E07800F0C00500F088
:103CB0003F006178094EC90707D0C30800F007012B
:103CC000491C32680AB1184690476078000703D54E
:103CD000716809B1A8098847002070BDD40100208F
:103CE00010B504460420FEF7CBFB094804704FF4DE
:103CF0007A714C43012141804FF0E021086940F086
:103D0000020008614C61086940F00100086110BDC3
:103D10001401002070B5044604F0DAFD01280CD02F
:103D2000094D6888844203D3B4FBF0F003F070FFC0
:103D30006888B4FBF0F100FB11444FF47A706043E3
:103D4000BDE8704000F002B81401002070B50021F9
:103D50004FF0E0256C690A4A12785043AB69AA69B2
:103D60009A42FCD003D2A3EB0203194403E0A4EB74
:103D700002063344194413468142F0D370BD00005B
:103D80001401002008B500280CD020208DF8000078
:103D900028208DF8010030208DF8020038208DF8A1
:103DA000030004E0A32204216846FCF7C0FC6A4635
:103DB000042140F69E2002F083FB02F007F808BDC4
:103DC0003EB5044602208DF80000CA208DF801009F
:103DD000E3208DF8020009208DF803006A460421D3
:103DE000682002F06DFBA3208DF80000610609D564
:103DF000C0218DF80110C8218DF80210C2218DF864
:103E0000031005E08DF801008DF802008DF8030025
:103E100014F4C07F09D0C4218DF80410CC218DF892
:103E20000510C6218DF8061005E08DF804008DF808
:103E300005008DF806008DF807008DF808008DF854
:103E400009006A460A2140F6A72002F039FBA007C4
:103E50004FF0D80503D020208DF8000001E08DF848
:103E600000506A46012140F6B62002F029FBA00668
:103E700003D5012000F09AF802E0002000F096F847
:103E800014F4C07F20D0E0050CD5B2208DF80000DE
:103E90008B208DF80100B6208DF802009B208DF854
:103EA00003000BE0B0208DF8000080208DF80100A9
:103EB000B4208DF8020090208DF803006A4604219A
:103EC00040F6A22002F0FCFAE0074FF40B6323D087
:103ED000F8208DF800006A460121184602F0F0FA39
:103EE000FA21072000F0ACFB072000F07BFB01204B
:103EF00000F094FB642000F071FC4FF4FA7000F0C5
:103F00007DFCC821274800F035FB282000F04AFB43
:103F10000A2000F057FB06E08DF800506A460121A8
:103F2000184602F0CDFAA00703D5D9208DF800007D
:103F300001E08DF800506A46012140F23D7002F028
:103F4000BFFA600703D5012000F05CF802E0002012
:103F500000F058F8E00603D50120FFF713FF02E058
:103F60000020FFF70FFF104D44F00800688101F0BA
:103F70002DFF0020A873600601D50620A87314F455
:103F8000C07F02D0A87B801DA87314F0140F02D04C
:103F9000A87B1030A873A00702D0A87B001DA873CF
:103FA00000203EBD09E3CA02D40100200EB54FF443
:103FB000976300280CD00DA0D0E900128068CDE9ED
:103FC000001202906A460921184602F079FA0EBDE5
:103FD00009A0D0E900128068CDE9001202906A467B
:103FE0000921184602F06CFA0EBD0000B8AAB38D84
:103FF000B4980D355D000000B8AAAAAAB088C3C560
:10400000C700000008B500280CD0C0208DF80000C3
:10401000C2208DF80100C4208DF80200C6208DF862
:10402000030004E08B2204216846FCF780FB6A460B
:10403000042140F6982002F043FA01F0C7FE08BDC3
:10404000C8234FF48062024940F6F63001F06EBD9D
:10405000289900082DE9FF4F8DB01646DDE91A5268
:10406000074688460024A146A5F80090DFF864B111
:1040700005A99BF80E0001F01BFE4FF0FF3A18B1A6
:10408000504611B0BDE8F08FBBF80A3013F0140FA2
:1040900061D09DF817009DF814109DF8162040EA95
:1040A00001609DF81510090441EA022108433060BF
:1040B0009DF81B109DF818209DF81A4041EA0261F6
:1040C0009DF81920120442EA0422114371609DF800
:1040D0001F209DF81C409DF81EC042EA04629DF816
:1040E0001D40240444EA0C242243B2609DF823407E
:1040F0009DF820C09DF822B044EA0C6C9DF8214048
:10410000240444EA0B244CEA040CC6F80CC0102426
:104110000014019008140290101403904FEA2C40F0
:10412000049001980299404301FB01010398049A0D
:10413000404302FB02000844A0F17060B0F1007F30
:1041400005D901F043FEA5F80090504699E728886C
:1041500040F480702880590605A818D50219065D1C
:10416000517841EA0621A8F80010D178967841EA02
:104170000621A8F802105179127941EA0221A8F823
:104180000410A41DE4B2298841F00801298013F429
:10419000C07F15D00119065D4A7842EA06223A80AE
:1041A000CA788E7842EA06227A804A79097942EA08
:1041B0000121B980A41DE4B2298841F07001298051
:1041C000990702D02044FFF76DFD109801F0D2F955
:1041D000002056E7D401002030B587B00446684679
:1041E00001F024FBBDF80000420CC1033C480389E8
:1041F00003F0030054F820000490580702D50498F7
:1042000040420490C3F3C10054F820000590980682
:1042100002D5059840420590C3F3811054F8200060
:104220000690D80502D50698404206900498A0FB57
:104230000145C31703FB015300FB0230830043EA2F
:10424000947004900598A0FB0145C31703FB01532C
:1042500000FB0230830043EA947005900698A0FBAF
:104260000145C31703FB015100FB0210810041EA25
:10427000947006900498000E8DF804000498000CC9
:104280008DF805000498000A8DF8060004988DF852
:1042900007000598000E8DF808000598000C8DF8B1
:1042A00009000598000A8DF80A0005988DF80B00A2
:1042B0000698000E8DF80C000698000C8DF80D0085
:1042C0000698000A8DF80E0006988DF80F0001AAD6
:1042D0000C214FF4257002F0F3F807B030BD000058
:1042E000D401002030B585B0044616A1D1E9000202
:1042F0008968CDE9032102904FF0FF35C82C02D91F
:10430000284605B030BDC820B0FBF4F1491E080AAC
:104310008DF800008DF801106A46022140F2162047
:1043200002F0CEF808B12846EBE702AA0C2140F6CD
:10433000C12002F0C5F808B12846E2E704488481AC
:104340000020DEE7FEF2ABC4AAF1DFDFBBAFDFDFA8
:10435000D40100201FB53F49098901F0030250F83C
:10436000222001924A0702D5019A52420192C1F3DA
:10437000C10250F8222002928A0602D5029A5242C5
:104380000292C1F3811250F822000390C80502D5B1
:104390000398404203903048019981FB00218B0033
:1043A00043EA92710191029981FB00218B0043EA5B
:1043B00092710291039981FB0001800F40EA810014
:1043C00003900198000E8DF800000198000C8DF804
:1043D00001000198000A8DF8020001988DF8030091
:1043E0006A4604214FF4747002F06AF84FF0FF340B
:1043F00010B1204604B010BD0298000E8DF80000E8
:104400000298000C8DF801000298000A8DF8020055
:1044100002988DF803006A4604214FF4757002F08B
:104420004FF808B12046E5E70398000E8DF800002C
:104430000398000C8DF801000398000A8DF8020023
:1044400003988DF803006A4604214FF4767002F059
:1044500037F8CFE7D401002009E3CA0230B587B0AE
:1044600004463FA0006804903EA0006803903EA070
:10447000006802903DA00068019004F0030004ABC6
:10448000195C8DF81810C4F3C102995C8DF81910ED
:10449000C4F381115B5C8DF81A3003AB185C8DF8A6
:1044A0001400985C8DF81500585C8DF8160006AA6B
:1044B000032140F2264002F003F84FF0FF3510B11F
:1044C000284607B030BD05AA032140F22A4001F07A
:1044D000F7FF08B12846F4E7029806900198059086
:1044E00060070BD59DF8180040F001008DF818000A
:1044F0009DF8140040F001008DF81400A0060BD5C3
:104500009DF8190040F001008DF819009DF8150084
:1045100040F001008DF81500E0050BD59DF81A005C
:1045200040F001008DF81A009DF8160040F00100DF
:104530008DF8160006AA03214FF4886001F0C0FF31
:1045400008B12846BDE705AA032140F2314001F039
:10455000B7FF08B12846B4E7054804810020B0E75A
:104560004CCD6C000CC92C003656760026466600F1
:10457000D401002008B54FF47A7290FBF2F0484362
:10458000010E8DF80010010C8DF80110010A8DF854
:1045900002108DF803006A4604214FF4AE7001F05A
:1045A0008FFF08BD08B50521B0FBF1F0010A8DF8B9
:1045B00000108DF801006A4602214FF4AD7001F041
:1045C0007FFF08BD08B50521B0FBF1F0010A8DF8A9
:1045D00000108DF801006A4602214FF4AC7001F022
:1045E0006FFF08BD08B500210091C10701D030213F
:1045F0000091810704D59DF8001041F00C01009155
:10460000400704D59DF8000040F0030000906A4682
:1046100001214FF4A47001F053FF08BD08B5002834
:104620000BD0042800D90420401E00906A460121C6
:1046300040F24F1001F044FF08BD0120F4E70000F4
:1046400070B504462DED028B82B060074FF0FF3647
:1046500002D0B1F5C86F04D9304602B0BDEC028B70
:1046600070BD00EE101AB8EE400ADFED530A80EE7E
:10467000208A684601F0B8F89DF80010022907D09A
:10468000042918D0082929D010293AD03046E4E767
:104690009FED4A0A28EE000ABCEEC00A10EE100A8E
:1046A00081B29FED470A28EE000ABCEEC00A10EE68
:1046B000100A82B237E09FED430A28EE000ABCEEF2
:1046C000C00A10EE100A81B29FED3F0A28EE000AE0
:1046D000BCEEC00A10EE100A82B224E09FED3B0A45
:1046E00028EE000ABCEEC00A10EE100A81B29FED5F
:1046F000380A28EE000ABCEEC00A10EE100A82B298
:1047000011E09FED340A28EE000ABCEEC00A10EE5C
:10471000100A81B29FED300A28EE000ABCEEC00AF2
:1047200010EE100A82B2080A8DF804008DF8051008
:10473000100A8DF806008DF80720E00701AD11D0B2
:1047400001AA02214FF4EA7001F0BAFE08B1304626
:1047500083E7AA1C02214FF4927001F0B1FE08B168
:1047600030467AE7A00711D501AA02214FF4EC7078
:1047700001F0A6FE08B130466FE7AA1C02214FF4F3
:10478000947001F09DFE08B1304666E7600711D5D0
:1047900001AA02214FF4EE7001F092FE08B13046FA
:1047A0005BE7AA1C02214FF4967001F089FE08B164
:1047B000304652E7002050E70000484300008046A2
:1047C00000004046000000460000C0450000804553
:1047D00000004045000000450000C04408B5052128
:1047E000B0FBF1F0010A8DF800108DF801006A4667
:1047F00002214FF4EF7001F063FE08BD08B50521FA
:10480000B0FBF1F0010A8DF800108DF801006A4646
:1048100002214FF4ED7001F053FE08BD82B0CDE9E6
:10482000000121F0004001909DED000B02B051EC21
:10483000100B7047FEB5584C606F03F02DFB206FD6
:1048400003F02AFB606E03F027FBFCF7F1FE40F259
:10485000CF1400218023A02208460094FCF778FEA4
:104860004FF6FF771123A022194600200097FCF78E
:10487000F2FD2223A022194600200097FCF7EBFD51
:104880003323A022194600200097FCF7E4FD4423BF
:10489000A022194600200097FCF7DDFD332280237B
:1048A000002110460097FCF7D6FD68224423002122
:1048B00010460097FCF7CFFD552333221946002000
:1048C0000097FCF7C8FD00250C26CDE901653B46A5
:1048D00032A2294628460094FDF77AF8CDE9016511
:1048E0003B4630A2002135200094FDF771F8CDE958
:1048F00001653B462DA200216A200094FDF768F86F
:10490000CDE901653B462CA2232100200094FDF750
:104910005FF8CDE901653B4629A2232135200094AB
:10492000FDF756F8CDE901653B4627A223216A2011
:104930000094FDF74DF8CDE901653B4623A24521E2
:1049400000200094FDF744F81020CDE901054FF454
:10495000784320A2562100940020FDF739F8CDE9D4
:1049600001653B462E2234211F200094FCF760FF96
:10497000CDE901653B462E22342154200094FCF7FA
:1049800057FFCDE901653B462E2234218B20009450
:10499000FCF74EFFFEBD00000000002054454D50C6
:1049A0002843290048554D4928252900494C4C5594
:1049B0004D286C78290000005049544348000000FD
:1049C000524F4C4C00000000594157005553415282
:1049D000540000004F4646210000000088B0254CDE
:1049E000254E04F15C054FF47A773EE001206061CA
:1049F0000020A061A069401CA0611E4900205C311C
:104A0000FDF7A0FAD4E91021A06C95F802C06B78EC
:104A100095F80080002800DA4042CDE9063CCDE957
:104A20000408002900DA4942002A00DA5242A37839
:104A30006068CDE90221CDE900300E4863780FA10E
:104A40009130A269FBF7C6FCA1692F22491EC1EB78
:104A5000011000EB4110216908448119054891308B
:104A6000FDF7FAFE384603F0D3F8A0696428C1D1F7
:104A7000BCE7000000000020C0BDF0FF72656325A8
:104A80003033643A2530326443253032642525259D
:104A90003035646C757820703A25303364723A256D
:104AA000303364793A253033642D253032643A2529
:104AB0003032643A253032640000000003490A882D
:104AC0005206FCD5C2B28A80704700000010014037
:104AD0007CB50546284801AB042240680D210078CA
:104AE000FDF702F808B107207CBD9DF807009DF88E
:104AF0000420C0F3011102F0E00241EAD2018DF876
:104B000000109DF80520C0F3810102F0E00241EAA7
:104B1000D2018DF801109DF8061000F0030001F09D
:104B2000E00140EAD1008DF8020000219FED131A48
:104B3000DFED131A9FED130A6C46605C20B105EBA4
:104B40008103C3ED001A0AE005EB810080ED001A35
:104B50000BE0D3ED000A60EE800AC3ED000A625C50
:104B6000521E12F0FF026254F3D1491CC9B203294C
:104B7000E3D300207CBD0000DC000020000000002A
:104B80007B14AE3E1D5A843F2DE9F04788B00546A0
:104B90000C46924601208DF8140000278DF8157000
:104BA000DFF8B88305AB0222D8F80000817CD8F882
:104BB00004000078FCF7D0FF4FF0FF3918B14846E9
:104BC00008B0BDE8F087C820FFF7A4F88DF814708E
:104BD000D8F8000005AB0122C17BD8F804000078AA
:104BE000FCF7BAFF08B14846EAE7D8F8000005AB81
:104BF00001224179D8F804000078FCF7ADFF08B134
:104C00004846DDE7D8F8000005AB0122817CD8F8E2
:104C100004000078FCF7A0FF08B14846D0E7D8F8B8
:104C2000000005AB0122C17DD8F804000078FCF734
:104C300093FF08B14846C3E7D8F8000005AB01224E
:104C40000179D8F804000078FCF786FF08B14846DF
:104C5000B6E70C268DF81460D8F8000005AB0122E9
:104C60000179D8F804000078FCF776FF08B14846CF
:104C7000A6E70F20FFF74EF8D8F82800407A8DF805
:104C80001400D8F8000005AB01228178D8F80400A0
:104C90000078FCF761FF08B1484691E7D8F8280092
:104CA000007A8DF81400D8F8000005AB0122417895
:104CB000D8F804000078FCF74FFF08B148467FE7BA
:104CC000BAF1000F07D0D8F82800807A40F0E00051
:104CD0008DF8140004E0D8F82800807A8DF81400CC
:104CE000D8F8000005AB01228179D8F804000078DB
:104CF000FCF732FF08B1484662E7BAF1000F07D06F
:104D0000D8F82800C07A40F0E0008DF8140002E0E6
:104D100018208DF81400D8F8000005AB0122C179E5
:104D2000D8F804000078FCF717FF08B1484647E7B9
:104D3000BAF1000F02D0C820FEF7ECFF40208DF83A
:104D40001400D8F8000005AB01220179D8F804005E
:104D50000078FCF701FF08B1484631E778208DF86C
:104D60001400D8F8000005AB01224179D8F80400FE
:104D70000078FCF7F1FE08B1484621E73220FEF743
:104D8000C9FF8DF81470D8F8000005AB01224179F5
:104D9000D8F804000078FCF7DFFE08B148460FE7BA
:104DA000D8F8000005AB0222817AD8F80400007818
:104DB000FCF79AFE08B1484602E79DF815009DF8F9
:104DC000141040EA0120B0FBF6F0C6B2AF606F608D
:104DD0002F60A76067602760002756E0D8F80000C2
:104DE00005AB0C22C17AD8F804000078FCF77CFEF1
:104DF00008B14846E4E69DF815009DF8141040EA15
:104E0000012002B2ADF80C209DF817009DF8161095
:104E100040EA012000B2ADF80E009DF819109DF88F
:104E2000183041EA032109B2ADF8101023681A4482
:104E30002260626810446060A0680844A0609DF829
:104E40001B009DF81A1040EA012000B2ADF80400E2
:104E50009DF81D109DF81C2041EA022109B2ADF811
:104E600006109DF81F209DF81E3042EA032212B260
:104E7000ADF808202B68184428606868084468600A
:104E8000A8681044A8607F1CFFB2B742A6D3286868
:104E90008322C117090441EA104100040023FBF7F3
:104EA00068FA32460023FBF764FA286068688322B8
:104EB000C117090441EA104100040023FBF759FA25
:104EC00032460023FBF755FA6860A8688322C117B1
:104ED000090441EA104100040023FBF74AFA324674
:104EE0000023FBF746FAA86020684FF40065C1175D
:104EF000090441EA104100042A460023FBF739FA6D
:104F000032460023FBF735FA206060682A46C11755
:104F1000090441EA104100040023FBF72AFA324653
:104F20000023FBF726FA6060A0682A46C11709042F
:104F300041EA104100040023FBF71BFA324600232C
:104F4000FBF717FAA060002803DDA0F58030A06011
:104F500002E000F58030A060002031E6DC00002097
:104F6000F8B505460E4600242E486B4603224068DD
:104F70000D210078FCF7B8FD08B10720F8BD9DF8B9
:104F8000000000F01F008DF800009DF8010000F007
:104F90001F008DF801009DF8020000F01F008DF841
:104FA00002000022DFED201A6B46012155F8220095
:104FB00056F82270C01B00D5404200EE100AB8EE31
:104FC000C00A60EE210A985CE8B1B3EE090A9FEDD1
:104FD000171A01E020EE010A985C401E10F0FF0055
:104FE0009854F7D180EE801AB7EE000A31EE400AED
:104FF0000F4FB0EEC00A10EE100AB8420DDD01FAF4
:1050000002F0044309E010EE900A0A4F3844B0F170
:10501000D97F02D901FA02F00443521C032AC5DBEE
:105020002046F8BDDC0000200000803754E3853FB7
:10503000295C0F3E0000E0BE00B50246104600F0BD
:105040000DF80346D01C00F009F843EAC003901D98
:1050500000F004F843EA801080B200BD90F900101F
:10506000002902DD4FF00000704702DA4FF0040023
:10507000704790F90110002902DD4FF001007047E0
:1050800002DA4FF00500704790F90200002802DDB7
:105090004FF00200704702DA4FF0060070474FF001
:1050A000070070472DED028B84B08A4C00270C2638
:1050B00040F2CF154FF6FF78B2EE048A4FF00A099E
:1050C0004FF0180B04F1580AB2E0404220648DE81A
:1050D000E00043462D2234210020FCF7A9FB07E025
:1050E0008DE8E00043462B2234210020FCF7A0FB92
:1050F000606C00280ADA404260648DE8E0004346B4
:105100002D2234213520FCF793FB07E08DE8E000E9
:1051100043462B2234213520FCF78AFBA06C002863
:105120000ADA4042A0648DE8E00043462D22342193
:105130006A20FCF77DFB07E08DE8E00043462B2268
:1051400034216A20FCF774FB343494ED000A20EE1D
:10515000080ABDEEC00A10EE100A90FBF9F109FB37
:105160001100A06194ED010A20EE080ABDEEC00A0C
:1051700010EE100A90FBF9F109FB1100E06194EDCB
:10518000020A20EE080ABDEEC00A10EE100A90FBDB
:10519000F9F109FB11002062CDE900850296A08992
:1051A000032382B234210C20FCF7D0FBCDE900852B
:1051B0000296208B012382B234212620FCF7C6FB05
:1051C000CDE900850296208A032382B23421412052
:1051D000FCF7BCFBCDE900850296A08B012382B2CF
:1051E00034215B20FCF7B2FBCDE900850296A08A52
:1051F000032382B234217820FCF7A8FBCDE9008597
:105200000296208C343C82B2012334219220FCF798
:105210009DFBCDE901B72F4A48F21F438832482150
:1052200035200095FCF7D4FB4FF4FA7002F0F0FC47
:10523000284900205831FCF785FE9AF802000090BA
:1052400024489AF801309AF8002023A18830FBF70F
:10525000C1F8CDE90085029602236278122101206F
:10526000FCF774FBCDE9008502960223A278122197
:105270003920FCF76BFBCDE900850296A088052359
:1052800082B212216E20FCF761FB94ED0D0A20EE34
:10529000080ABDEEC00A10EE100A90FBF9F0206477
:1052A00094ED0E0A20EE080ABDEEC00A10EE101AA8
:1052B00091FBF9F1616494ED0F0A20EE080ABDEE4E
:1052C000C00A10EE101A91FBF9F1A1640028BFF694
:1052D00007AFFAE600000020253032643A2530326C
:1052E000643A2530326400002DE9FE4F4FF44070DF
:1052F000FCF7DAFCA820FEF7F3FC4FF4E13002F0F3
:1053000093F9FCF7D1FBFBF7FDFFFCF753FCFCF72F
:105310008FF940F2CF1900218023A0220846CDF852
:105320000090FCF715F9FBF7EBFE0120FBF756FFA9
:10533000FBF7E2FD00F00EFAFDF7F8F900240C256A
:105340004FF6FF764FF478474FF4C8780BE0CDE97D
:10535000006500213B4669A208460294FCF738FB31
:105360004046FEF7D7FCFBF739FC0028EFD14FF49D
:10537000FA784EF6147A17E0CDE9006500213B4635
:1053800061A208460294FCF723FB4046FEF7C2FCEC
:10539000CDE9006500213B465EA208460294FCF779
:1053A00017FB4046FEF7B6FCFDF722FA5045E3D165
:1053B0001123A022194600200096FCF74CF8222366
:1053C000A022194600200096FCF745F83323A022BE
:1053D000194600200096FCF73EF84423A022194607
:1053E00000200096FCF737F8332280230021104676
:1053F0000096FCF730F868224423002110460096FE
:10540000FCF729F855233322194600200096FCF7B3
:1054100022F8CDE900950021334642A208460294C5
:10542000FCF7D6FACDE90095334640A2002135209D
:105430000294FCF7CDFACDE9009533463DA2002158
:105440006A200294FCF7C4FACDE9009533463CA2E9
:10545000232100200294FCF7BBFACDE900953346E6
:1054600039A2232135200294FCF7B2FACDE9009548
:10547000334637A223216A200294FCF7A9FACDE92A
:105480000095334633A2452100200294FCF7A0FA90
:105490001020CDE900904FF4FC6330A25621029415
:1054A0000020FCF795FACDE9009533462E223421F1
:1054B0001F200294FCF7BCF9CDE9009533462E225B
:1054C000342154200294FCF7B3F9CDE9009533461A
:1054D0002E2234218B200294FCF7AAF920480121C6
:1054E000CDE900100A0200231EA1214803F0C0F9F3
:1054F00002F048FD0020BDE8FE8F00004448543112
:1055000031204552524F5200464C4153482045529B
:10551000524F5200504C4541534520434845434B60
:105520002100000054454D502843290048554D495D
:1055300028252900494C4C554D286C78290000003D
:105540005049544348000000524F4C4C00000000AA
:105550005941570055534152540000004F4E21000D
:105560006000002073746172745F7461736B00007B
:105570004175000870470000044A111F081F00F021
:1055800037F8FA2002F044FBF6E700003C00002068
:105590002DE9F041002620F00104144D95F8240077
:1055A000002802D00020BDE8F081A97A4FF0FF3832
:1055B00039B12F7C21402974A14200D0464624B93C
:1055C00001E04046EFE7287D18B1012001F046FFD9
:1055D00002E0002001F042FF2CB100F0F7FB10B117
:1055E0002F744046DFE73046DDE70000DC00002096
:1055F00070B506462DED0C8B8EB00D461446F7EEB9
:1056000000BA07A808A9CDE900100DAB03AA09A9A3
:105610000BA8FEF71FFD20B101200EB0BDEC0C8BD6
:1056200070BDBDF82000C0057ED59DED030AF8EEE3
:10563000C00A9FED450A60EE809ADDED040AF8EE9F
:10564000E00A20EE808ADDED050AF8EEE00A60EE61
:10565000808ADDED060AF8EEE00A20EE809AB8EEC8
:10566000000AB0EE00CA28EE00BA69EE8CCA2BEE32
:10567000090A0CEEA80A10EE100A04F0B1F841EC89
:10568000100BFDF7ADF99FED31AB51EC100B53EC66
:105690001A2B03F0E5FD03F057FB30602BEE080AF0
:1056A00028EE8CDA0DEE680A30EE2B0A10EE100AA6
:1056B00004F096F82DEE090A41EC1B0B0CEE880A5B
:1056C00010EE100A04F08CF841EC100BB0EE4B1AFF
:1056D000F0EE6B1AFDF7A0FC53EC1A2B51EC100BFB
:1056E00003F0BEFD03F030FB286029EEA90A08EEA6
:1056F000080A08EEE80A09EE490A10EE100A04F05A
:105700006FF828EE280A41EC1B0B09EE890A20EEFF
:105710000C0A10EE100A04F063F841EC100BB0EE26
:105720004B1AF0EE6B1A00E00CE0FDF775FC53EC41
:105730001A2B51EC100B03F093FD03F005FB2060D6
:1057400000206AE7022068E700008030666666662F
:1057500066A64C4010B5FBF7CFFB00F011F990BBEB
:10576000782000F055FEC0B208B1012010BD7820AD
:10577000FFF70EFFC0B208B1022010BD642000F098
:1057800005FEC0B208B1032010BDFEF759FCC0B23F
:1057900008B1042010BD1348FFF74EFCFEF75EFE73
:1057A000C0B208B1052010BD40F27310FEF708FB2F
:1057B000C0B208B1062010BD6420FEF793FDC0B250
:1057C00010B1072010BD0BE001F024FC08B1082047
:1057D000F8E7012000F0F2FCC0B208B10920F1E7BF
:1057E0000020EFE7080100200F4A517A002908D075
:1057F000012909D002290AD003290BD04FF0FF302C
:1058000070470221017007E00421017004E00821C3
:10581000017001E010210170D17C11B101784900C3
:105820000170002070470000DC000020114A517A0E
:10583000002908D001290AD002290CD003290ED052
:105840004FF0FF3070474FF4804101800AE041F68D
:105850009C71018006E04FF48051018002E04FF41A
:1058600000610180D17C11B10188490801800020CC
:1058700070470000DC0000200249097C0170002014
:1058800070470000DC0000200E49097A002909D089
:1058900001290AD002290CD003290ED00021018051
:1058A00000207047FA210180FAE74FF4FA71018075
:1058B000F6E74FF47A710180F2E74FF4FA61018064
:1058C000EEE70000DC0000201049097A002908D02A
:1058D00001290BD002290ED0032911D04FF0FF303F
:1058E00070479FED0B0A80ED000A0DE09FED090A5D
:1058F00080ED000A08E09FED080A80ED000A03E051
:105900009FED060A80ED000A00207047DC000020B1
:1059100000000343000083423333034233338341A7
:105920000F49C97A072917D2DFE801F01604070AE0
:105930000D101300BC21018010E0622101800DE0F8
:105940002A2101800AE01421018007E00A21018058
:1059500004E00521018001E0002101800020704762
:10596000DC000020054991F82420002A02D04FF0E5
:10597000FF307047C989018000207047DC0000209B
:105980002DE9FC4180208DF80000544C6B4601222B
:105990002068817C60680078FCF7DEF84FF0FF3605
:1059A00010B13046BDE8FC816420FEF7B3F9002554
:1059B0008DF8005020686B460122817C6068007879
:1059C000FCF7CAF808B13046ECE720686B460622BF
:1059D000817D60680078FCF787F808B13046E1E720
:1059E0009DF805009DF80310C007400F01F001016C
:1059F00040EA41019DF8010000F001000143012748
:105A000061B1012906D0022906D035A0FAF7D6FCEB
:105A10003046C7E7E77414E0E57412E020686B468F
:105A20000122C17860680078FCF75EF808B1304662
:105A3000B8E79DF8000000F00F0008B3042824D058
:105A4000E574FF2104F80A1F04F8021C04F8011C85
:105A500061704FF6FF70A080A1712172A770277648
:105A60006576E572A572E56025616561A576E576E6
:105A7000A5834FF4FA6000F0DFFB58B1304691E7A0
:105A80002148FAF79BFC30468CE720A0FAF796FCF9
:105A9000E774D6E7022000F0CBFA08B1304681E780
:105AA0002A2000F035FC08B130467BE7322000F0B8
:105AB0006DFC08B1304675E70020FFF769FD08B1BD
:105AC00030466FE7002000F0EDFA08B1304669E794
:105AD000002000F09DFC002064E70000DC000020B6
